{
  "_format": "hh-sol-artifact-1",
  "contractName": "GloballyApprovedOperatorsERC1155",
  "sourceName": "globally-approved-operators-tokens/contracts/GloballyApprovedOperatorsERC1155.sol",
  "abi": [
    {
      "inputs": [
        {
          "internalType": "string",
          "name": "_uri",
          "type": "string"
        },
        {
          "internalType": "address[]",
          "name": "_globallyApprovedOperators",
          "type": "address[]"
        }
      ],
      "stateMutability": "nonpayable",
      "type": "constructor"
    },
    {
      "anonymous": false,
      "inputs": [
        {
          "indexed": true,
          "internalType": "address",
          "name": "account",
          "type": "address"
        },
        {
          "indexed": true,
          "internalType": "address",
          "name": "operator",
          "type": "address"
        },
        {
          "indexed": false,
          "internalType": "bool",
          "name": "approved",
          "type": "bool"
        }
      ],
      "name": "ApprovalForAll",
      "type": "event"
    },
    {
      "anonymous": false,
      "inputs": [
        {
          "indexed": true,
          "internalType": "address",
          "name": "operator",
          "type": "address"
        },
        {
          "indexed": true,
          "internalType": "address",
          "name": "from",
          "type": "address"
        },
        {
          "indexed": true,
          "internalType": "address",
          "name": "to",
          "type": "address"
        },
        {
          "indexed": false,
          "internalType": "uint256[]",
          "name": "ids",
          "type": "uint256[]"
        },
        {
          "indexed": false,
          "internalType": "uint256[]",
          "name": "values",
          "type": "uint256[]"
        }
      ],
      "name": "TransferBatch",
      "type": "event"
    },
    {
      "anonymous": false,
      "inputs": [
        {
          "indexed": true,
          "internalType": "address",
          "name": "operator",
          "type": "address"
        },
        {
          "indexed": true,
          "internalType": "address",
          "name": "from",
          "type": "address"
        },
        {
          "indexed": true,
          "internalType": "address",
          "name": "to",
          "type": "address"
        },
        {
          "indexed": false,
          "internalType": "uint256",
          "name": "id",
          "type": "uint256"
        },
        {
          "indexed": false,
          "internalType": "uint256",
          "name": "value",
          "type": "uint256"
        }
      ],
      "name": "TransferSingle",
      "type": "event"
    },
    {
      "anonymous": false,
      "inputs": [
        {
          "indexed": false,
          "internalType": "string",
          "name": "value",
          "type": "string"
        },
        {
          "indexed": true,
          "internalType": "uint256",
          "name": "id",
          "type": "uint256"
        }
      ],
      "name": "URI",
      "type": "event"
    },
    {
      "inputs": [
        {
          "internalType": "address",
          "name": "account",
          "type": "address"
        },
        {
          "internalType": "uint256",
          "name": "id",
          "type": "uint256"
        }
      ],
      "name": "balanceOf",
      "outputs": [
        {
          "internalType": "uint256",
          "name": "",
          "type": "uint256"
        }
      ],
      "stateMutability": "view",
      "type": "function"
    },
    {
      "inputs": [
        {
          "internalType": "address[]",
          "name": "accounts",
          "type": "address[]"
        },
        {
          "internalType": "uint256[]",
          "name": "ids",
          "type": "uint256[]"
        }
      ],
      "name": "balanceOfBatch",
      "outputs": [
        {
          "internalType": "uint256[]",
          "name": "",
          "type": "uint256[]"
        }
      ],
      "stateMutability": "view",
      "type": "function"
    },
    {
      "inputs": [
        {
          "internalType": "address",
          "name": "owner",
          "type": "address"
        },
        {
          "internalType": "address",
          "name": "operator",
          "type": "address"
        }
      ],
      "name": "isApprovedForAll",
      "outputs": [
        {
          "internalType": "bool",
          "name": "",
          "type": "bool"
        }
      ],
      "stateMutability": "view",
      "type": "function"
    },
    {
      "inputs": [
        {
          "internalType": "address",
          "name": "from",
          "type": "address"
        },
        {
          "internalType": "address",
          "name": "to",
          "type": "address"
        },
        {
          "internalType": "uint256[]",
          "name": "ids",
          "type": "uint256[]"
        },
        {
          "internalType": "uint256[]",
          "name": "amounts",
          "type": "uint256[]"
        },
        {
          "internalType": "bytes",
          "name": "data",
          "type": "bytes"
        }
      ],
      "name": "safeBatchTransferFrom",
      "outputs": [],
      "stateMutability": "nonpayable",
      "type": "function"
    },
    {
      "inputs": [
        {
          "internalType": "address",
          "name": "from",
          "type": "address"
        },
        {
          "internalType": "address",
          "name": "to",
          "type": "address"
        },
        {
          "internalType": "uint256",
          "name": "id",
          "type": "uint256"
        },
        {
          "internalType": "uint256",
          "name": "amount",
          "type": "uint256"
        },
        {
          "internalType": "bytes",
          "name": "data",
          "type": "bytes"
        }
      ],
      "name": "safeTransferFrom",
      "outputs": [],
      "stateMutability": "nonpayable",
      "type": "function"
    },
    {
      "inputs": [
        {
          "internalType": "address",
          "name": "operator",
          "type": "address"
        },
        {
          "internalType": "bool",
          "name": "approved",
          "type": "bool"
        }
      ],
      "name": "setApprovalForAll",
      "outputs": [],
      "stateMutability": "nonpayable",
      "type": "function"
    },
    {
      "inputs": [
        {
          "internalType": "bytes4",
          "name": "interfaceId",
          "type": "bytes4"
        }
      ],
      "name": "supportsInterface",
      "outputs": [
        {
          "internalType": "bool",
          "name": "",
          "type": "bool"
        }
      ],
      "stateMutability": "view",
      "type": "function"
    },
    {
      "inputs": [
        {
          "internalType": "uint256",
          "name": "",
          "type": "uint256"
        }
      ],
      "name": "uri",
      "outputs": [
        {
          "internalType": "string",
          "name": "",
          "type": "string"
        }
      ],
      "stateMutability": "view",
      "type": "function"
    }
  ],
  "bytecode": "0x60806040523480156200001157600080fd5b50604051620017ba380380620017ba833981016040819052620000349162000260565b816200004081620000b9565b5060005b8151811015620000b05760016003600084848151811062000069576200006962000345565b6020908102919091018101516001600160a01b03168252810191909152604001600020805460ff191691151591909117905580620000a7816200035b565b91505062000044565b505050620003c2565b8051620000ce906002906020840190620000d2565b5050565b828054620000e09062000385565b90600052602060002090601f0160209004810192826200010457600085556200014f565b82601f106200011f57805160ff19168380011785556200014f565b828001600101855582156200014f579182015b828111156200014f57825182559160200191906001019062000132565b506200015d92915062000161565b5090565b5b808211156200015d576000815560010162000162565b634e487b7160e01b600052604160045260246000fd5b604051601f8201601f191681016001600160401b0381118282101715620001b957620001b962000178565b604052919050565b600082601f830112620001d357600080fd5b815160206001600160401b03821115620001f157620001f162000178565b8160051b620002028282016200018e565b92835284810182019282810190878511156200021d57600080fd5b83870192505b84831015620002555782516001600160a01b0381168114620002455760008081fd5b8252918301919083019062000223565b979650505050505050565b600080604083850312156200027457600080fd5b82516001600160401b03808211156200028c57600080fd5b818501915085601f830112620002a157600080fd5b815181811115620002b657620002b662000178565b6020620002cc601f8301601f191682016200018e565b8281528882848701011115620002e157600080fd5b60005b8381101562000301578581018301518282018401528201620002e4565b83811115620003135760008385840101525b5090870151909550925050808211156200032c57600080fd5b506200033b85828601620001c1565b9150509250929050565b634e487b7160e01b600052603260045260246000fd5b60006000198214156200037e57634e487b7160e01b600052601160045260246000fd5b5060010190565b600181811c908216806200039a57607f821691505b60208210811415620003bc57634e487b7160e01b600052602260045260246000fd5b50919050565b6113e880620003d26000396000f3fe608060405234801561001057600080fd5b50600436106100875760003560e01c80634e1273f41161005b5780634e1273f41461010a578063a22cb4651461012a578063e985e9c51461013d578063f242432a1461015057600080fd5b8062fdd58e1461008c57806301ffc9a7146100b25780630e89341c146100d55780632eb2c2d6146100f5575b600080fd5b61009f61009a366004610bf1565b610163565b6040519081526020015b60405180910390f35b6100c56100c0366004610c34565b6101fa565b60405190151581526020016100a9565b6100e86100e3366004610c51565b61024c565b6040516100a99190610cb7565b610108610103366004610e16565b6102e0565b005b61011d610118366004610ec0565b610377565b6040516100a99190610fc6565b610108610138366004610fd9565b6104a1565b6100c561014b366004611015565b610578565b61010861015e366004611048565b6105cb565b60006001600160a01b0383166101d45760405162461bcd60e51b815260206004820152602b60248201527f455243313135353a2062616c616e636520717565727920666f7220746865207a60448201526a65726f206164647265737360a81b60648201526084015b60405180910390fd5b506000908152602081815260408083206001600160a01b03949094168352929052205490565b60006001600160e01b03198216636cdb3d1360e11b148061022b57506001600160e01b031982166303a24d0760e21b145b8061024657506301ffc9a760e01b6001600160e01b03198316145b92915050565b60606002805461025b906110ad565b80601f0160208091040260200160405190810160405280929190818152602001828054610287906110ad565b80156102d45780601f106102a9576101008083540402835291602001916102d4565b820191906000526020600020905b8154815290600101906020018083116102b757829003601f168201915b50505050509050919050565b6001600160a01b0385163314806102fc57506102fc8533610578565b6103635760405162461bcd60e51b815260206004820152603260248201527f455243313135353a207472616e736665722063616c6c6572206973206e6f74206044820152711bdddb995c881b9bdc88185c1c1c9bdd995960721b60648201526084016101cb565b6103708585858585610652565b5050505050565b606081518351146103dc5760405162461bcd60e51b815260206004820152602960248201527f455243313135353a206163636f756e747320616e6420696473206c656e677468604482015268040dad2e6dac2e8c6d60bb1b60648201526084016101cb565b6000835167ffffffffffffffff8111156103f8576103f8610cca565b604051908082528060200260200182016040528015610421578160200160208202803683370190505b50905060005b84518110156104995761046c858281518110610445576104456110e8565b602002602001015185838151811061045f5761045f6110e8565b6020026020010151610163565b82828151811061047e5761047e6110e8565b602090810291909101015261049281611114565b9050610427565b509392505050565b6001600160a01b03821633141561050c5760405162461bcd60e51b815260206004820152602960248201527f455243313135353a2073657474696e6720617070726f76616c20737461747573604482015268103337b91039b2b63360b91b60648201526084016101cb565b3360008181526004602090815260408083206001600160a01b03871680855290835292819020805460ff191686151590811790915590519081529192917f17307eab39ab6107e8899845ad3d59bd9653f200f220920489ca2b5937696c31910160405180910390a35050565b6001600160a01b03811660009081526003602052604081205460ff16806105c457506001600160a01b0380841660009081526004602090815260408083209386168352929052205460ff165b9392505050565b6001600160a01b0385163314806105e757506105e78533610578565b6106455760405162461bcd60e51b815260206004820152602960248201527f455243313135353a2063616c6c6572206973206e6f74206f776e6572206e6f7260448201526808185c1c1c9bdd995960ba1b60648201526084016101cb565b610370858585858561082f565b81518351146106b45760405162461bcd60e51b815260206004820152602860248201527f455243313135353a2069647320616e6420616d6f756e7473206c656e677468206044820152670dad2e6dac2e8c6d60c31b60648201526084016101cb565b6001600160a01b0384166106da5760405162461bcd60e51b81526004016101cb9061112f565b3360005b84518110156107c15760008582815181106106fb576106fb6110e8565b602002602001015190506000858381518110610719576107196110e8565b602090810291909101810151600084815280835260408082206001600160a01b038e1683529093529190912054909150818110156107695760405162461bcd60e51b81526004016101cb90611174565b6000838152602081815260408083206001600160a01b038e8116855292528083208585039055908b168252812080548492906107a69084906111be565b92505081905550505050806107ba90611114565b90506106de565b50846001600160a01b0316866001600160a01b0316826001600160a01b03167f4a39dc06d4c0dbc64b70af90fd698a233a518aa5d07e595d983b8c0526c8f7fb87876040516108119291906111d6565b60405180910390a4610827818787878787610955565b505050505050565b6001600160a01b0384166108555760405162461bcd60e51b81526004016101cb9061112f565b3361086e81878761086588610ac0565b61037088610ac0565b6000848152602081815260408083206001600160a01b038a168452909152902054838110156108af5760405162461bcd60e51b81526004016101cb90611174565b6000858152602081815260408083206001600160a01b038b81168552925280832087850390559088168252812080548692906108ec9084906111be565b909155505060408051868152602081018690526001600160a01b03808916928a821692918616917fc3d58168c5ae7397731d063d5bbf3d657854427343f4c083240f7aacaa2d0f62910160405180910390a461094c828888888888610b0b565b50505050505050565b6001600160a01b0384163b156108275760405163bc197c8160e01b81526001600160a01b0385169063bc197c81906109999089908990889088908890600401611204565b602060405180830381600087803b1580156109b357600080fd5b505af19250505080156109e3575060408051601f3d908101601f191682019092526109e091810190611262565b60015b610a90576109ef61127f565b806308c379a01415610a295750610a0461129b565b80610a0f5750610a2b565b8060405162461bcd60e51b81526004016101cb9190610cb7565b505b60405162461bcd60e51b815260206004820152603460248201527f455243313135353a207472616e7366657220746f206e6f6e20455243313135356044820152732932b1b2b4bb32b91034b6b83632b6b2b73a32b960611b60648201526084016101cb565b6001600160e01b0319811663bc197c8160e01b1461094c5760405162461bcd60e51b81526004016101cb90611325565b60408051600180825281830190925260609160009190602080830190803683370190505090508281600081518110610afa57610afa6110e8565b602090810291909101015292915050565b6001600160a01b0384163b156108275760405163f23a6e6160e01b81526001600160a01b0385169063f23a6e6190610b4f908990899088908890889060040161136d565b602060405180830381600087803b158015610b6957600080fd5b505af1925050508015610b99575060408051601f3d908101601f19168201909252610b9691810190611262565b60015b610ba5576109ef61127f565b6001600160e01b0319811663f23a6e6160e01b1461094c5760405162461bcd60e51b81526004016101cb90611325565b80356001600160a01b0381168114610bec57600080fd5b919050565b60008060408385031215610c0457600080fd5b610c0d83610bd5565b946020939093013593505050565b6001600160e01b031981168114610c3157600080fd5b50565b600060208284031215610c4657600080fd5b81356105c481610c1b565b600060208284031215610c6357600080fd5b5035919050565b6000815180845260005b81811015610c9057602081850181015186830182015201610c74565b81811115610ca2576000602083870101525b50601f01601f19169290920160200192915050565b6020815260006105c46020830184610c6a565b634e487b7160e01b600052604160045260246000fd5b601f8201601f1916810167ffffffffffffffff81118282101715610d0657610d06610cca565b6040525050565b600067ffffffffffffffff821115610d2757610d27610cca565b5060051b60200190565b600082601f830112610d4257600080fd5b81356020610d4f82610d0d565b604051610d5c8282610ce0565b83815260059390931b8501820192828101915086841115610d7c57600080fd5b8286015b84811015610d975780358352918301918301610d80565b509695505050505050565b600082601f830112610db357600080fd5b813567ffffffffffffffff811115610dcd57610dcd610cca565b604051610de4601f8301601f191660200182610ce0565b818152846020838601011115610df957600080fd5b816020850160208301376000918101602001919091529392505050565b600080600080600060a08688031215610e2e57600080fd5b610e3786610bd5565b9450610e4560208701610bd5565b9350604086013567ffffffffffffffff80821115610e6257600080fd5b610e6e89838a01610d31565b94506060880135915080821115610e8457600080fd5b610e9089838a01610d31565b93506080880135915080821115610ea657600080fd5b50610eb388828901610da2565b9150509295509295909350565b60008060408385031215610ed357600080fd5b823567ffffffffffffffff80821115610eeb57600080fd5b818501915085601f830112610eff57600080fd5b81356020610f0c82610d0d565b604051610f198282610ce0565b83815260059390931b8501820192828101915089841115610f3957600080fd5b948201945b83861015610f5e57610f4f86610bd5565b82529482019490820190610f3e565b96505086013592505080821115610f7457600080fd5b50610f8185828601610d31565b9150509250929050565b600081518084526020808501945080840160005b83811015610fbb57815187529582019590820190600101610f9f565b509495945050505050565b6020815260006105c46020830184610f8b565b60008060408385031215610fec57600080fd5b610ff583610bd5565b91506020830135801515811461100a57600080fd5b809150509250929050565b6000806040838503121561102857600080fd5b61103183610bd5565b915061103f60208401610bd5565b90509250929050565b600080600080600060a0868803121561106057600080fd5b61106986610bd5565b945061107760208701610bd5565b93506040860135925060608601359150608086013567ffffffffffffffff8111156110a157600080fd5b610eb388828901610da2565b600181811c908216806110c157607f821691505b602082108114156110e257634e487b7160e01b600052602260045260246000fd5b50919050565b634e487b7160e01b600052603260045260246000fd5b634e487b7160e01b600052601160045260246000fd5b6000600019821415611128576111286110fe565b5060010190565b60208082526025908201527f455243313135353a207472616e7366657220746f20746865207a65726f206164604082015264647265737360d81b606082015260800190565b6020808252602a908201527f455243313135353a20696e73756666696369656e742062616c616e636520666f60408201526939103a3930b739b332b960b11b606082015260800190565b600082198211156111d1576111d16110fe565b500190565b6040815260006111e96040830185610f8b565b82810360208401526111fb8185610f8b565b95945050505050565b6001600160a01b0386811682528516602082015260a06040820181905260009061123090830186610f8b565b82810360608401526112428186610f8b565b905082810360808401526112568185610c6a565b98975050505050505050565b60006020828403121561127457600080fd5b81516105c481610c1b565b600060033d11156112985760046000803e5060005160e01c5b90565b600060443d10156112a95790565b6040516003193d81016004833e81513d67ffffffffffffffff81602484011181841117156112d957505050505090565b82850191508151818111156112f15750505050505090565b843d870101602082850101111561130b5750505050505090565b61131a60208286010187610ce0565b509095945050505050565b60208082526028908201527f455243313135353a204552433131353552656365697665722072656a656374656040820152676420746f6b656e7360c01b606082015260800190565b6001600160a01b03868116825285166020820152604081018490526060810183905260a0608082018190526000906113a790830184610c6a565b97965050505050505056fea264697066735822122042926da24daffcf91e4b57e5ef2156bb5be81fd30fbe8c5cb6d01b1e950e0f5864736f6c63430008090033",
  "linkReferences": {},
  "deployedLinkReferences": {}
}