{
  "_format": "hh-sol-artifact-1",
  "contractName": "ERC721OrderMarketplace",
  "sourceName": "contracts/ERC721Marketplace/ERC721OrderMarketplace.sol",
  "abi": [
    {
      "inputs": [
        {
          "internalType": "address payable",
          "name": "_feeDestination",
          "type": "address"
        }
      ],
      "stateMutability": "nonpayable",
      "type": "constructor"
    },
    {
      "anonymous": false,
      "inputs": [
        {
          "indexed": true,
          "internalType": "bytes32",
          "name": "id",
          "type": "bytes32"
        },
        {
          "indexed": true,
          "internalType": "address",
          "name": "owner",
          "type": "address"
        },
        {
          "indexed": true,
          "internalType": "address",
          "name": "buyer",
          "type": "address"
        },
        {
          "indexed": false,
          "internalType": "address",
          "name": "tokenAddress",
          "type": "address"
        },
        {
          "indexed": false,
          "internalType": "uint256",
          "name": "tokenId",
          "type": "uint256"
        },
        {
          "indexed": false,
          "internalType": "uint256",
          "name": "price",
          "type": "uint256"
        }
      ],
      "name": "OrderCompleted",
      "type": "event"
    },
    {
      "anonymous": false,
      "inputs": [
        {
          "indexed": true,
          "internalType": "bytes32",
          "name": "id",
          "type": "bytes32"
        },
        {
          "indexed": true,
          "internalType": "address",
          "name": "owner",
          "type": "address"
        },
        {
          "indexed": false,
          "internalType": "address",
          "name": "tokenAddress",
          "type": "address"
        },
        {
          "indexed": false,
          "internalType": "uint256",
          "name": "tokenId",
          "type": "uint256"
        },
        {
          "indexed": false,
          "internalType": "uint256",
          "name": "price",
          "type": "uint256"
        }
      ],
      "name": "OrderCreated",
      "type": "event"
    },
    {
      "anonymous": false,
      "inputs": [
        {
          "indexed": true,
          "internalType": "bytes32",
          "name": "id",
          "type": "bytes32"
        },
        {
          "indexed": true,
          "internalType": "address",
          "name": "owner",
          "type": "address"
        },
        {
          "indexed": false,
          "internalType": "address",
          "name": "tokenAddress",
          "type": "address"
        },
        {
          "indexed": false,
          "internalType": "uint256",
          "name": "tokenId",
          "type": "uint256"
        },
        {
          "indexed": false,
          "internalType": "uint256",
          "name": "price",
          "type": "uint256"
        }
      ],
      "name": "OrderRemoved",
      "type": "event"
    },
    {
      "anonymous": false,
      "inputs": [
        {
          "indexed": true,
          "internalType": "address",
          "name": "previousOwner",
          "type": "address"
        },
        {
          "indexed": true,
          "internalType": "address",
          "name": "newOwner",
          "type": "address"
        }
      ],
      "name": "OwnershipTransferred",
      "type": "event"
    },
    {
      "inputs": [
        {
          "internalType": "address",
          "name": "_contractAddress",
          "type": "address"
        }
      ],
      "name": "addApprovedContract",
      "outputs": [],
      "stateMutability": "nonpayable",
      "type": "function"
    },
    {
      "inputs": [
        {
          "internalType": "address",
          "name": "",
          "type": "address"
        }
      ],
      "name": "approvedContracts",
      "outputs": [
        {
          "internalType": "bool",
          "name": "",
          "type": "bool"
        }
      ],
      "stateMutability": "view",
      "type": "function"
    },
    {
      "inputs": [
        {
          "internalType": "bytes32",
          "name": "_id",
          "type": "bytes32"
        }
      ],
      "name": "buyOrder",
      "outputs": [],
      "stateMutability": "payable",
      "type": "function"
    },
    {
      "inputs": [
        {
          "internalType": "uint16",
          "name": "_fee",
          "type": "uint16"
        }
      ],
      "name": "changeFee",
      "outputs": [],
      "stateMutability": "nonpayable",
      "type": "function"
    },
    {
      "inputs": [
        {
          "internalType": "address payable",
          "name": "_feeDestination",
          "type": "address"
        }
      ],
      "name": "changeFeeDestination",
      "outputs": [],
      "stateMutability": "nonpayable",
      "type": "function"
    },
    {
      "inputs": [
        {
          "internalType": "address",
          "name": "_tokenAddress",
          "type": "address"
        },
        {
          "internalType": "uint256",
          "name": "_tokenId",
          "type": "uint256"
        },
        {
          "internalType": "uint256",
          "name": "_price",
          "type": "uint256"
        }
      ],
      "name": "createOrder",
      "outputs": [
        {
          "internalType": "bytes32",
          "name": "",
          "type": "bytes32"
        }
      ],
      "stateMutability": "nonpayable",
      "type": "function"
    },
    {
      "inputs": [],
      "name": "fee",
      "outputs": [
        {
          "internalType": "uint16",
          "name": "",
          "type": "uint16"
        }
      ],
      "stateMutability": "view",
      "type": "function"
    },
    {
      "inputs": [],
      "name": "feeDestination",
      "outputs": [
        {
          "internalType": "address payable",
          "name": "",
          "type": "address"
        }
      ],
      "stateMutability": "view",
      "type": "function"
    },
    {
      "inputs": [
        {
          "internalType": "address",
          "name": "",
          "type": "address"
        },
        {
          "internalType": "address",
          "name": "",
          "type": "address"
        },
        {
          "internalType": "uint256",
          "name": "",
          "type": "uint256"
        },
        {
          "internalType": "bytes",
          "name": "",
          "type": "bytes"
        }
      ],
      "name": "onERC721Received",
      "outputs": [
        {
          "internalType": "bytes4",
          "name": "",
          "type": "bytes4"
        }
      ],
      "stateMutability": "nonpayable",
      "type": "function"
    },
    {
      "inputs": [
        {
          "internalType": "bytes32",
          "name": "",
          "type": "bytes32"
        }
      ],
      "name": "orders",
      "outputs": [
        {
          "internalType": "address",
          "name": "tokenAddress",
          "type": "address"
        },
        {
          "internalType": "uint256",
          "name": "tokenId",
          "type": "uint256"
        },
        {
          "internalType": "address",
          "name": "owner",
          "type": "address"
        },
        {
          "internalType": "uint256",
          "name": "price",
          "type": "uint256"
        }
      ],
      "stateMutability": "view",
      "type": "function"
    },
    {
      "inputs": [],
      "name": "owner",
      "outputs": [
        {
          "internalType": "address",
          "name": "",
          "type": "address"
        }
      ],
      "stateMutability": "view",
      "type": "function"
    },
    {
      "inputs": [
        {
          "internalType": "bytes32",
          "name": "_id",
          "type": "bytes32"
        }
      ],
      "name": "removeOrder",
      "outputs": [],
      "stateMutability": "nonpayable",
      "type": "function"
    },
    {
      "inputs": [],
      "name": "renounceOwnership",
      "outputs": [],
      "stateMutability": "nonpayable",
      "type": "function"
    },
    {
      "inputs": [
        {
          "internalType": "address",
          "name": "newOwner",
          "type": "address"
        }
      ],
      "name": "transferOwnership",
      "outputs": [],
      "stateMutability": "nonpayable",
      "type": "function"
    }
  ],
  "bytecode": "0x60806040526003805461ffff60a01b1916607d60a21b17905534801561002457600080fd5b506040516111ac3803806111ac833981016040819052610043916100c1565b61004c33610071565b600380546001600160a01b0319166001600160a01b03929092169190911790556100f1565b600080546001600160a01b038381166001600160a01b0319831681178455604051919092169283917f8be0079c531659141344cd1fd0a4f28419497f9722a3daafe3b4186f6b6457e09190a35050565b6000602082840312156100d357600080fd5b81516001600160a01b03811681146100ea57600080fd5b9392505050565b6110ac806101006000396000f3fe6080604052600436106100dd5760003560e01c80638eb6ac7a1161007f578063ddca3f4311610059578063ddca3f43146102db578063de53fcd514610310578063f2fde38b14610330578063fde996681461035057600080fd5b80638eb6ac7a146102145780639c3f1e9014610227578063acfee8ed146102ad57600080fd5b806326749ad7116100bb57806326749ad71461016d5780633407facd146101ad578063715018a6146101cd5780638da5cb5b146101e257600080fd5b8063135171be146100e2578063150b7a02146101045780631e18cb891461014d575b600080fd5b3480156100ee57600080fd5b506101026100fd366004610d99565b610370565b005b34801561011057600080fd5b5061012f61011f366004610dd3565b630a85bd0160e11b949350505050565b6040516001600160e01b031990911681526020015b60405180910390f35b34801561015957600080fd5b50610102610168366004610d99565b6103ca565b34801561017957600080fd5b5061019d610188366004610d99565b60016020526000908152604090205460ff1681565b6040519015158152602001610144565b3480156101b957600080fd5b506101026101c8366004610eb3565b610416565b3480156101d957600080fd5b506101026104ab565b3480156101ee57600080fd5b506000546001600160a01b03165b6040516001600160a01b039091168152602001610144565b610102610222366004610ed7565b6104e1565b34801561023357600080fd5b50610278610242366004610ed7565b600260208190526000918252604090912080546001820154928201546003909201546001600160a01b0391821693929091169084565b60405161014494939291906001600160a01b039485168152602081019390935292166040820152606081019190915260800190565b3480156102b957600080fd5b506102cd6102c8366004610ef0565b61084a565b604051908152602001610144565b3480156102e757600080fd5b506003546102fd90600160a01b900461ffff1681565b60405161ffff9091168152602001610144565b34801561031c57600080fd5b506003546101fc906001600160a01b031681565b34801561033c57600080fd5b5061010261034b366004610d99565b6109c9565b34801561035c57600080fd5b5061010261036b366004610ed7565b610a64565b6000546001600160a01b031633146103a35760405162461bcd60e51b815260040161039a90610f25565b60405180910390fd5b6001600160a01b03166000908152600160208190526040909120805460ff19169091179055565b6000546001600160a01b031633146103f45760405162461bcd60e51b815260040161039a90610f25565b600380546001600160a01b0319166001600160a01b0392909216919091179055565b6000546001600160a01b031633146104405760405162461bcd60e51b815260040161039a90610f25565b6102ee8161ffff1611156104895760405162461bcd60e51b815260206004820152601060248201526f746f6f20626967206f6620612066656560801b604482015260640161039a565b6003805461ffff909216600160a01b0261ffff60a01b19909216919091179055565b6000546001600160a01b031633146104d55760405162461bcd60e51b815260040161039a90610f25565b6104df6000610bf3565b565b6000818152600260208181526040808420815160808101835281546001600160a01b03808216835260018401805484880152848801805492831696850196909652600385018054606086019081528b8b52989097526001600160a01b0319928316909455928790559091169091559290555134146105935760405162461bcd60e51b815260206004820152600f60248201526e696e636f727265637420707269636560881b604482015260640161039a565b80516020820151604051632142170760e11b815230600482015233602482015260448101919091526001600160a01b03909116906342842e0e90606401600060405180830381600087803b1580156105ea57600080fd5b505af11580156105fe573d6000803e3d6000fd5b5050825160009250829150610623906001600160a01b031663152a902d60e11b610c43565b156106b4578251602084015160405163152a902d60e11b815260048101919091523460248201526001600160a01b0390911690632a55205a90604401604080518083038186803b15801561067657600080fd5b505afa15801561068a573d6000803e3d6000fd5b505050506040513d601f19601f820116820180604052508101906106ae9190610f5a565b90925090505b80156106f2576040516001600160a01b0383169082156108fc029083906000818181858888f193505050501580156106f0573d6000803e3d6000fd5b505b600354600160a01b900461ffff1615610764576003546001600160a01b038116906108fc906127109061073090600160a01b900461ffff1634610f9e565b61073a9190610fbd565b6040518115909202916000818181858888f19350505050158015610762573d6000803e3d6000fd5b505b82604001516001600160a01b03166108fc82612710600360149054906101000a900461ffff166127106107979190610fdf565b6107a59061ffff1634610f9e565b6107af9190610fbd565b6107b99190611002565b6040518115909202916000818181858888f193505050501580156107e1573d6000803e3d6000fd5b50604080840151845160208087015160608089015186516001600160a01b03958616815293840192909252948201523393929091169187917f4995bff4c064499420a10e75834ad8a6ae752a128ead7b33abe810e5c659872d910160405180910390a450505050565b604051632142170760e11b8152326004820152306024820152604481018390526000906001600160a01b038516906342842e0e90606401600060405180830381600087803b15801561089b57600080fd5b505af11580156108af573d6000803e3d6000fd5b50506040516bffffffffffffffffffffffff19606088811b82166020840152603483018890526054830187905232901b1660748201524260888201526000925060a801905060408051601f1981840301815282825280516020918201206080840183526001600160a01b038981168086528386018a8152328787018181526060808a018d815260008881526002808b52908b90209b518c549089166001600160a01b0319918216178d55955160018d01559251928b01805493909716929094169190911790945590516003909701969096558451908152928301899052928201879052935083917f9a81642995eb82c61150ace07ccae644c97b69fa389b64bff4fc2814f7b77bc0910160405180910390a3949350505050565b6000546001600160a01b031633146109f35760405162461bcd60e51b815260040161039a90610f25565b6001600160a01b038116610a585760405162461bcd60e51b815260206004820152602660248201527f4f776e61626c653a206e6577206f776e657220697320746865207a65726f206160448201526564647265737360d01b606482015260840161039a565b610a6181610bf3565b50565b6000818152600260208190526040909120015481906001600160a01b03163314610ac35760405162461bcd60e51b815260206004820152601060248201526f37b7363c9037b93232b91037bbb732b960811b604482015260640161039a565b6000828152600260208181526040808420815160808101835281546001600160a01b0380821683526001840180548488019081528589018054808516878a015260038801805460608901528e8d529a9099526001600160a01b0319948516909655908990559190951690925594909355835192519051632142170760e11b815230600482015233602482015260448101919091529116906342842e0e90606401600060405180830381600087803b158015610b7d57600080fd5b505af1158015610b91573d6000803e3d6000fd5b50508251602080850151606080870151604080516001600160a01b03909616865293850192909252918301523393508692507fd2d5fdb0dbb11744e6a225b916775dac5b0413e0a9b47932e5a098b3cb20dd9c910160405180910390a3505050565b600080546001600160a01b038381166001600160a01b0319831681178455604051919092169283917f8be0079c531659141344cd1fd0a4f28419497f9722a3daafe3b4186f6b6457e09190a35050565b6000610c4e83610c68565b8015610c5f5750610c5f8383610c9b565b90505b92915050565b6000610c7b826301ffc9a760e01b610c9b565b8015610c625750610c94826001600160e01b0319610c9b565b1592915050565b604080516001600160e01b0319831660248083019190915282518083039091018152604490910182526020810180516001600160e01b03166301ffc9a760e01b179052905160009190829081906001600160a01b0387169061753090610d02908690611019565b6000604051808303818686fa925050503d8060008114610d3e576040519150601f19603f3d011682016040523d82523d6000602084013e610d43565b606091505b5091509150602081511015610d5e5760009350505050610c62565b818015610d7a575080806020019051810190610d7a9190611054565b9695505050505050565b6001600160a01b0381168114610a6157600080fd5b600060208284031215610dab57600080fd5b8135610db681610d84565b9392505050565b634e487b7160e01b600052604160045260246000fd5b60008060008060808587031215610de957600080fd5b8435610df481610d84565b93506020850135610e0481610d84565b925060408501359150606085013567ffffffffffffffff80821115610e2857600080fd5b818701915087601f830112610e3c57600080fd5b813581811115610e4e57610e4e610dbd565b604051601f8201601f19908116603f01168101908382118183101715610e7657610e76610dbd565b816040528281528a6020848701011115610e8f57600080fd5b82602086016020830137600060208483010152809550505050505092959194509250565b600060208284031215610ec557600080fd5b813561ffff81168114610db657600080fd5b600060208284031215610ee957600080fd5b5035919050565b600080600060608486031215610f0557600080fd5b8335610f1081610d84565b95602085013595506040909401359392505050565b6020808252818101527f4f776e61626c653a2063616c6c6572206973206e6f7420746865206f776e6572604082015260600190565b60008060408385031215610f6d57600080fd5b8251610f7881610d84565b6020939093015192949293505050565b634e487b7160e01b600052601160045260246000fd5b6000816000190483118215151615610fb857610fb8610f88565b500290565b600082610fda57634e487b7160e01b600052601260045260246000fd5b500490565b600061ffff83811690831681811015610ffa57610ffa610f88565b039392505050565b60008282101561101457611014610f88565b500390565b6000825160005b8181101561103a5760208186018101518583015201611020565b81811115611049576000828501525b509190910192915050565b60006020828403121561106657600080fd5b81518015158114610db657600080fdfea2646970667358221220ad398cdd711bbd42785f6773375c478d4c816fe67c70cc418475aed830e20aee64736f6c63430008090033",
  "linkReferences": {},
  "deployedLinkReferences": {}
}