{
  "_format": "hh-sol-artifact-1",
  "contractName": "ERC1155ListingMarketplace",
  "sourceName": "contracts/ERC1155Marketplace/ERC1155ListingMarketplace.sol",
  "abi": [
    {
      "inputs": [
        {
          "internalType": "address payable",
          "name": "_feeDestination",
          "type": "address"
        }
      ],
      "stateMutability": "nonpayable",
      "type": "constructor"
    },
    {
      "anonymous": false,
      "inputs": [
        {
          "indexed": true,
          "internalType": "bytes32",
          "name": "id",
          "type": "bytes32"
        },
        {
          "indexed": true,
          "internalType": "address",
          "name": "owner",
          "type": "address"
        },
        {
          "indexed": true,
          "internalType": "address",
          "name": "offeror",
          "type": "address"
        },
        {
          "indexed": false,
          "internalType": "uint128",
          "name": "offer",
          "type": "uint128"
        },
        {
          "indexed": false,
          "internalType": "address",
          "name": "tokenAddress",
          "type": "address"
        },
        {
          "indexed": false,
          "internalType": "uint256",
          "name": "tokenId",
          "type": "uint256"
        },
        {
          "indexed": false,
          "internalType": "uint256",
          "name": "tokenQty",
          "type": "uint256"
        }
      ],
      "name": "ListingCompleted",
      "type": "event"
    },
    {
      "anonymous": false,
      "inputs": [
        {
          "indexed": true,
          "internalType": "bytes32",
          "name": "id",
          "type": "bytes32"
        },
        {
          "indexed": true,
          "internalType": "address",
          "name": "owner",
          "type": "address"
        },
        {
          "indexed": false,
          "internalType": "address",
          "name": "tokenAddress",
          "type": "address"
        },
        {
          "indexed": false,
          "internalType": "uint256",
          "name": "tokenId",
          "type": "uint256"
        },
        {
          "indexed": false,
          "internalType": "uint256",
          "name": "tokenQty",
          "type": "uint256"
        }
      ],
      "name": "ListingCreated",
      "type": "event"
    },
    {
      "anonymous": false,
      "inputs": [
        {
          "indexed": true,
          "internalType": "bytes32",
          "name": "id",
          "type": "bytes32"
        },
        {
          "indexed": true,
          "internalType": "address",
          "name": "offeror",
          "type": "address"
        },
        {
          "indexed": false,
          "internalType": "uint128",
          "name": "offer",
          "type": "uint128"
        },
        {
          "indexed": false,
          "internalType": "address",
          "name": "tokenAddress",
          "type": "address"
        },
        {
          "indexed": false,
          "internalType": "uint256",
          "name": "tokenId",
          "type": "uint256"
        },
        {
          "indexed": false,
          "internalType": "uint256",
          "name": "tokenQty",
          "type": "uint256"
        }
      ],
      "name": "ListingOfferPlaced",
      "type": "event"
    },
    {
      "anonymous": false,
      "inputs": [
        {
          "indexed": true,
          "internalType": "bytes32",
          "name": "id",
          "type": "bytes32"
        },
        {
          "indexed": true,
          "internalType": "address",
          "name": "offeror",
          "type": "address"
        },
        {
          "indexed": false,
          "internalType": "uint128",
          "name": "offer",
          "type": "uint128"
        },
        {
          "indexed": false,
          "internalType": "address",
          "name": "tokenAddress",
          "type": "address"
        },
        {
          "indexed": false,
          "internalType": "uint256",
          "name": "tokenId",
          "type": "uint256"
        },
        {
          "indexed": false,
          "internalType": "uint256",
          "name": "tokenQty",
          "type": "uint256"
        }
      ],
      "name": "ListingOfferWithdrawn",
      "type": "event"
    },
    {
      "anonymous": false,
      "inputs": [
        {
          "indexed": true,
          "internalType": "bytes32",
          "name": "id",
          "type": "bytes32"
        },
        {
          "indexed": true,
          "internalType": "address",
          "name": "owner",
          "type": "address"
        },
        {
          "indexed": false,
          "internalType": "address",
          "name": "tokenAddress",
          "type": "address"
        },
        {
          "indexed": false,
          "internalType": "uint256",
          "name": "tokenId",
          "type": "uint256"
        },
        {
          "indexed": false,
          "internalType": "uint256",
          "name": "tokenQty",
          "type": "uint256"
        }
      ],
      "name": "ListingRemoved",
      "type": "event"
    },
    {
      "anonymous": false,
      "inputs": [
        {
          "indexed": true,
          "internalType": "address",
          "name": "previousOwner",
          "type": "address"
        },
        {
          "indexed": true,
          "internalType": "address",
          "name": "newOwner",
          "type": "address"
        }
      ],
      "name": "OwnershipTransferred",
      "type": "event"
    },
    {
      "inputs": [
        {
          "internalType": "bytes32",
          "name": "_id",
          "type": "bytes32"
        }
      ],
      "name": "acceptListingOffer",
      "outputs": [],
      "stateMutability": "nonpayable",
      "type": "function"
    },
    {
      "inputs": [
        {
          "internalType": "address",
          "name": "_contractAddress",
          "type": "address"
        }
      ],
      "name": "addApprovedContract",
      "outputs": [],
      "stateMutability": "nonpayable",
      "type": "function"
    },
    {
      "inputs": [
        {
          "internalType": "address",
          "name": "",
          "type": "address"
        }
      ],
      "name": "approvedContracts",
      "outputs": [
        {
          "internalType": "bool",
          "name": "",
          "type": "bool"
        }
      ],
      "stateMutability": "view",
      "type": "function"
    },
    {
      "inputs": [
        {
          "internalType": "uint16",
          "name": "_fee",
          "type": "uint16"
        }
      ],
      "name": "changeFee",
      "outputs": [],
      "stateMutability": "nonpayable",
      "type": "function"
    },
    {
      "inputs": [
        {
          "internalType": "address payable",
          "name": "_feeDestination",
          "type": "address"
        }
      ],
      "name": "changeFeeDestination",
      "outputs": [],
      "stateMutability": "nonpayable",
      "type": "function"
    },
    {
      "inputs": [
        {
          "internalType": "address",
          "name": "_tokenAddress",
          "type": "address"
        },
        {
          "internalType": "uint256",
          "name": "_tokenId",
          "type": "uint256"
        },
        {
          "internalType": "uint256",
          "name": "_tokenQty",
          "type": "uint256"
        }
      ],
      "name": "createListing",
      "outputs": [
        {
          "internalType": "bytes32",
          "name": "",
          "type": "bytes32"
        }
      ],
      "stateMutability": "nonpayable",
      "type": "function"
    },
    {
      "inputs": [],
      "name": "fee",
      "outputs": [
        {
          "internalType": "uint16",
          "name": "",
          "type": "uint16"
        }
      ],
      "stateMutability": "view",
      "type": "function"
    },
    {
      "inputs": [],
      "name": "feeDestination",
      "outputs": [
        {
          "internalType": "address payable",
          "name": "",
          "type": "address"
        }
      ],
      "stateMutability": "view",
      "type": "function"
    },
    {
      "inputs": [
        {
          "internalType": "bytes32",
          "name": "",
          "type": "bytes32"
        }
      ],
      "name": "listings",
      "outputs": [
        {
          "internalType": "address",
          "name": "tokenAddress",
          "type": "address"
        },
        {
          "internalType": "uint256",
          "name": "tokenId",
          "type": "uint256"
        },
        {
          "internalType": "uint256",
          "name": "tokenQty",
          "type": "uint256"
        },
        {
          "internalType": "address",
          "name": "owner",
          "type": "address"
        },
        {
          "internalType": "uint128",
          "name": "offer",
          "type": "uint128"
        },
        {
          "internalType": "address",
          "name": "offeror",
          "type": "address"
        },
        {
          "internalType": "uint128",
          "name": "offerPlacedAt",
          "type": "uint128"
        }
      ],
      "stateMutability": "view",
      "type": "function"
    },
    {
      "inputs": [
        {
          "internalType": "address",
          "name": "",
          "type": "address"
        },
        {
          "internalType": "address",
          "name": "",
          "type": "address"
        },
        {
          "internalType": "uint256[]",
          "name": "",
          "type": "uint256[]"
        },
        {
          "internalType": "uint256[]",
          "name": "",
          "type": "uint256[]"
        },
        {
          "internalType": "bytes",
          "name": "",
          "type": "bytes"
        }
      ],
      "name": "onERC1155BatchReceived",
      "outputs": [
        {
          "internalType": "bytes4",
          "name": "",
          "type": "bytes4"
        }
      ],
      "stateMutability": "nonpayable",
      "type": "function"
    },
    {
      "inputs": [
        {
          "internalType": "address",
          "name": "",
          "type": "address"
        },
        {
          "internalType": "address",
          "name": "",
          "type": "address"
        },
        {
          "internalType": "uint256",
          "name": "",
          "type": "uint256"
        },
        {
          "internalType": "uint256",
          "name": "",
          "type": "uint256"
        },
        {
          "internalType": "bytes",
          "name": "",
          "type": "bytes"
        }
      ],
      "name": "onERC1155Received",
      "outputs": [
        {
          "internalType": "bytes4",
          "name": "",
          "type": "bytes4"
        }
      ],
      "stateMutability": "nonpayable",
      "type": "function"
    },
    {
      "inputs": [],
      "name": "owner",
      "outputs": [
        {
          "internalType": "address",
          "name": "",
          "type": "address"
        }
      ],
      "stateMutability": "view",
      "type": "function"
    },
    {
      "inputs": [
        {
          "internalType": "bytes32",
          "name": "_id",
          "type": "bytes32"
        }
      ],
      "name": "placeOffer",
      "outputs": [],
      "stateMutability": "payable",
      "type": "function"
    },
    {
      "inputs": [
        {
          "internalType": "bytes32",
          "name": "_id",
          "type": "bytes32"
        }
      ],
      "name": "removeListing",
      "outputs": [],
      "stateMutability": "nonpayable",
      "type": "function"
    },
    {
      "inputs": [],
      "name": "renounceOwnership",
      "outputs": [],
      "stateMutability": "nonpayable",
      "type": "function"
    },
    {
      "inputs": [
        {
          "internalType": "bytes4",
          "name": "interfaceId",
          "type": "bytes4"
        }
      ],
      "name": "supportsInterface",
      "outputs": [
        {
          "internalType": "bool",
          "name": "",
          "type": "bool"
        }
      ],
      "stateMutability": "view",
      "type": "function"
    },
    {
      "inputs": [
        {
          "internalType": "address",
          "name": "newOwner",
          "type": "address"
        }
      ],
      "name": "transferOwnership",
      "outputs": [],
      "stateMutability": "nonpayable",
      "type": "function"
    },
    {
      "inputs": [
        {
          "internalType": "bytes32",
          "name": "_id",
          "type": "bytes32"
        }
      ],
      "name": "withdrawOffer",
      "outputs": [],
      "stateMutability": "nonpayable",
      "type": "function"
    }
  ],
  "bytecode": "0x60806040526003805461ffff60a01b1916607d60a21b1790553480156200002557600080fd5b5060405162001d9038038062001d908339810160408190526200004891620000aa565b62000053336200005a565b50620000dc565b600080546001600160a01b038381166001600160a01b0319831681178455604051919092169283917f8be0079c531659141344cd1fd0a4f28419497f9722a3daafe3b4186f6b6457e09190a35050565b600060208284031215620000bd57600080fd5b81516001600160a01b0381168114620000d557600080fd5b9392505050565b611ca480620000ec6000396000f3fe6080604052600436106101095760003560e01c8063715018a611610095578063c71f681811610064578063c71f6818146103af578063ddca3f43146103c2578063de53fcd5146103f7578063f23a6e6114610417578063f2fde38b1461044357600080fd5b8063715018a6146102635780638da5cb5b14610278578063bc197c81146102aa578063c18b8db4146102ef57600080fd5b806326749ad7116100dc57806326749ad7146101b35780633407facd146101e3578063550ee133146102035780635ff548691461022357806367bd3df21461024357600080fd5b806301ffc9a71461010e578063135171be146101435780631e18cb891461016557806324780c5614610185575b600080fd5b34801561011a57600080fd5b5061012e610129366004611716565b610463565b60405190151581526020015b60405180910390f35b34801561014f57600080fd5b5061016361015e366004611755565b61049a565b005b34801561017157600080fd5b50610163610180366004611755565b6104f4565b34801561019157600080fd5b506101a56101a0366004611772565b610540565b60405190815260200161013a565b3480156101bf57600080fd5b5061012e6101ce366004611755565b60016020526000908152604090205460ff1681565b3480156101ef57600080fd5b506101636101fe3660046117a7565b610771565b34801561020f57600080fd5b5061016361021e3660046117cb565b610806565b34801561022f57600080fd5b5061016361023e3660046117cb565b610bbe565b34801561024f57600080fd5b5061016361025e3660046117cb565b610d49565b34801561026f57600080fd5b50610163611309565b34801561028457600080fd5b506000546001600160a01b03165b6040516001600160a01b03909116815260200161013a565b3480156102b657600080fd5b506102d66102c536600461191b565b63bc197c8160e01b95945050505050565b6040516001600160e01b0319909116815260200161013a565b3480156102fb57600080fd5b5061036061030a3660046117cb565b600260208190526000918252604090912080546001820154928201546003830154600484015460058501546006909501546001600160a01b0394851696959394928316936001600160801b039283169316911687565b604080516001600160a01b039889168152602081019790975286019490945291851660608501526001600160801b039081166080850152931660a08301529190911660c082015260e00161013a565b6101636103bd3660046117cb565b61133f565b3480156103ce57600080fd5b506003546103e490600160a01b900461ffff1681565b60405161ffff909116815260200161013a565b34801561040357600080fd5b50600354610292906001600160a01b031681565b34801561042357600080fd5b506102d66104323660046119c9565b63f23a6e6160e01b95945050505050565b34801561044f57600080fd5b5061016361045e366004611755565b6114ec565b60006001600160e01b03198216630271189760e51b148061049457506301ffc9a760e01b6001600160e01b03198316145b92915050565b6000546001600160a01b031633146104cd5760405162461bcd60e51b81526004016104c490611a32565b60405180910390fd5b6001600160a01b03166000908152600160208190526040909120805460ff19169091179055565b6000546001600160a01b0316331461051e5760405162461bcd60e51b81526004016104c490611a32565b600380546001600160a01b0319166001600160a01b0392909216919091179055565b6000333b158061055f57503360009081526001602052604090205460ff165b61057b5760405162461bcd60e51b81526004016104c490611a67565b604051637921219560e11b81526001600160a01b0385169063f242432a906105ad903290309088908890600401611a9e565b600060405180830381600087803b1580156105c757600080fd5b505af11580156105db573d6000803e3d6000fd5b50506040516bffffffffffffffffffffffff19606088811b82166020840152603483018890526054830187905232901b1660748201524260888201526000925060a801905060408051601f19818403018152828252805160209182012060e0840183526001600160a01b03808a1685528483018981528585018981523260608801818152600060808a0181815260a08b0182815260c08c0183815289845260029a8b9052928b90209b518c549089166001600160a01b0319918216178d55965160018d01559451988b0198909855905160038a01805491871691861691909117905595516004890180546001600160801b039283166001600160801b031991821617909155925160058a01805491909616941693909317909355935160069096018054969091169590931694909417909155905190925082907f778015f8f465e56b5fcf4e026e0c9e4a879f6c3fc7d17aa2895cb9aa36edf8d790610761908990899089906001600160a01b039390931683526020830191909152604082015260600190565b60405180910390a3949350505050565b6000546001600160a01b0316331461079b5760405162461bcd60e51b81526004016104c490611a32565b6102ee8161ffff1611156107e45760405162461bcd60e51b815260206004820152601060248201526f746f6f20626967206f6620612066656560801b60448201526064016104c4565b6003805461ffff909216600160a01b0261ffff60a01b19909216919091179055565b60008181526002602052604090206003015481906001600160a01b031633146108665760405162461bcd60e51b815260206004820152601260248201527137b7363c903634b9ba34b7339037bbb732b960711b60448201526064016104c4565b333b158061088357503360009081526001602052604090205460ff165b61089f5760405162461bcd60e51b81526004016104c490611a67565b6000600260008481526020019081526020016000206040518060e00160405290816000820160009054906101000a90046001600160a01b03166001600160a01b03166001600160a01b0316815260200160018201548152602001600282015481526020016003820160009054906101000a90046001600160a01b03166001600160a01b03166001600160a01b031681526020016004820160009054906101000a90046001600160801b03166001600160801b03166001600160801b031681526020016005820160009054906101000a90046001600160a01b03166001600160a01b03166001600160a01b031681526020016006820160009054906101000a90046001600160801b03166001600160801b03166001600160801b031681525050905060026000848152602001908152602001600020600080820160006101000a8154906001600160a01b030219169055600182016000905560028201600090556003820160006101000a8154906001600160a01b0302191690556004820160006101000a8154906001600160801b0302191690556005820160006101000a8154906001600160a01b0302191690556006820160006101000a8154906001600160801b030219169055505060006001600160a01b03168160a001516001600160a01b031614158015610a9b575060a08101516001600160a01b03163b155b15610aec578060a001516001600160a01b03166108fc82608001516001600160801b03169081150290604051600060405180830381858888f19350505050158015610aea573d6000803e3d6000fd5b505b805160208201516040808401519051637921219560e11b81526001600160a01b039093169263f242432a92610b2992309233929190600401611a9e565b600060405180830381600087803b158015610b4357600080fd5b505af1158015610b57573d6000803e3d6000fd5b505050606080830151835160208086015160408088015181516001600160a01b039586168152938401929092528201529116925085917fe0511e9fcd91bcb0584280ceb58277f0868ce7df0d9a71330dbe5a090f7986f191015b60405180910390a3505050565b60008181526002602052604090206005015481906001600160a01b03163314610c185760405162461bcd60e51b815260206004820152600c60248201526b37b7363c9037b33332b937b960a11b60448201526064016104c4565b60008281526002602052604090206006810154610c41906001600160801b03166202a300611aec565b6001600160801b03164211610c8f5760405162461bcd60e51b81526020600482015260146024820152737769746864726177616c20746f6f206561726c7960601b60448201526064016104c4565b6004810180546001600160801b03199081169091556005820180546001600160a01b0319169055600682018054909116905560405133906108fc9060009081818181818888f19350505050158015610ceb573d6000803e3d6000fd5b506004810154815460018301546002840154604051339488947fe88bd2cff2fb1282f19df662c275096422f855e679b2804d295274d75aeff9f694610bb1946001600160801b03909316936001600160a01b03909216929091611b17565b60008181526002602052604090206003015481906001600160a01b03163314610da95760405162461bcd60e51b815260206004820152601260248201527137b7363c903634b9ba34b7339037bbb732b960711b60448201526064016104c4565b60008281526002602052604090206005015482906001600160a01b0316610e0a5760405162461bcd60e51b81526020600482015260156024820152743634b9ba34b733903bb4ba341037379037b33332b960591b60448201526064016104c4565b333b1580610e2757503360009081526001602052604090205460ff165b610e435760405162461bcd60e51b81526004016104c490611a67565b6000600260008581526020019081526020016000206040518060e00160405290816000820160009054906101000a90046001600160a01b03166001600160a01b03166001600160a01b0316815260200160018201548152602001600282015481526020016003820160009054906101000a90046001600160a01b03166001600160a01b03166001600160a01b031681526020016004820160009054906101000a90046001600160801b03166001600160801b03166001600160801b031681526020016005820160009054906101000a90046001600160a01b03166001600160a01b03166001600160a01b031681526020016006820160009054906101000a90046001600160801b03166001600160801b03166001600160801b031681525050905060026000858152602001908152602001600020600080820160006101000a8154906001600160a01b030219169055600182016000905560028201600090556003820160006101000a8154906001600160a01b0302191690556004820160006101000a8154906001600160801b0302191690556005820160006101000a8154906001600160a01b0302191690556006820160006101000a8154906001600160801b030219169055505060008061103663152a902d60e11b84600001516001600160a01b031661158790919063ffffffff16565b156110d45782516020840151608085015160405163152a902d60e11b815260048101929092526001600160801b031660248201526001600160a01b0390911690632a55205a90604401604080518083038186803b15801561109657600080fd5b505afa1580156110aa573d6000803e3d6000fd5b505050506040513d601f19601f820116820180604052508101906110ce9190611b46565b90925090505b8015611112576040516001600160a01b0383169082156108fc029083906000818181858888f19350505050158015611110573d6000803e3d6000fd5b505b600354600160a01b900461ffff16156111965760035460808401516001600160a01b038216916108fc916127109161115691600160a01b90910461ffff1690611b74565b6111609190611ba3565b6001600160801b03169081150290604051600060405180830381858888f19350505050158015611194573d6000803e3d6000fd5b505b60035433906108fc908390612710906111ba90600160a01b900461ffff1682611bd7565b61ffff1687608001516111cd9190611b74565b6111d79190611ba3565b6001600160801b03166111ea9190611bfa565b6040518115909202916000818181858888f19350505050158015611212573d6000803e3d6000fd5b5060a08301516001600160a01b03163b61129b5782600001516001600160a01b031663f242432a308560a00151866020015187604001516040518563ffffffff1660e01b81526004016112689493929190611a9e565b600060405180830381600087803b15801561128257600080fd5b505af1158015611296573d6000803e3d6000fd5b505050505b8260a001516001600160a01b0316336001600160a01b0316877ff9a30180e8a5aebee3f2cb9568060564688db537752dc92e8bb7352f9245075c86608001518760000151886020015189604001516040516112f99493929190611b17565b60405180910390a4505050505050565b6000546001600160a01b031633146113335760405162461bcd60e51b81526004016104c490611a32565b61133d60006115aa565b565b333b158061135c57503360009081526001602052604090205460ff165b6113785760405162461bcd60e51b81526004016104c490611a67565b600081815260026020526040902060048101546001600160801b031634116113d25760405162461bcd60e51b815260206004820152600d60248201526c6f6666657220746f6f206c6f7760981b60448201526064016104c4565b60058101546001600160a01b0316158015906113fa575060058101546001600160a01b03163b155b1561144b57600581015460048201546040516001600160a01b03909216916001600160801b0390911680156108fc02916000818181858888f19350505050158015611449573d6000803e3d6000fd5b505b6005810180546001600160a01b031916339081179091556004820180546001600160801b03348181166001600160801b031993841617909355600685018054429092169190921617905582546001840154600285015460405187947f26ebc52593955d821e9ec14fae3292953de5ea8c1fda3a7071942a52cffd5499946114e09491936001600160a01b039190911692611b17565b60405180910390a35050565b6000546001600160a01b031633146115165760405162461bcd60e51b81526004016104c490611a32565b6001600160a01b03811661157b5760405162461bcd60e51b815260206004820152602660248201527f4f776e61626c653a206e6577206f776e657220697320746865207a65726f206160448201526564647265737360d01b60648201526084016104c4565b611584816115aa565b50565b6000611592836115fa565b80156115a357506115a3838361162d565b9392505050565b600080546001600160a01b038381166001600160a01b0319831681178455604051919092169283917f8be0079c531659141344cd1fd0a4f28419497f9722a3daafe3b4186f6b6457e09190a35050565b600061160d826301ffc9a760e01b61162d565b80156104945750611626826001600160e01b031961162d565b1592915050565b604080516001600160e01b0319831660248083019190915282518083039091018152604490910182526020810180516001600160e01b03166301ffc9a760e01b179052905160009190829081906001600160a01b0387169061753090611694908690611c11565b6000604051808303818686fa925050503d80600081146116d0576040519150601f19603f3d011682016040523d82523d6000602084013e6116d5565b606091505b50915091506020815110156116f05760009350505050610494565b81801561170c57508080602001905181019061170c9190611c4c565b9695505050505050565b60006020828403121561172857600080fd5b81356001600160e01b0319811681146115a357600080fd5b6001600160a01b038116811461158457600080fd5b60006020828403121561176757600080fd5b81356115a381611740565b60008060006060848603121561178757600080fd5b833561179281611740565b95602085013595506040909401359392505050565b6000602082840312156117b957600080fd5b813561ffff811681146115a357600080fd5b6000602082840312156117dd57600080fd5b5035919050565b634e487b7160e01b600052604160045260246000fd5b604051601f8201601f1916810167ffffffffffffffff81118282101715611823576118236117e4565b604052919050565b600082601f83011261183c57600080fd5b8135602067ffffffffffffffff821115611858576118586117e4565b8160051b6118678282016117fa565b928352848101820192828101908785111561188157600080fd5b83870192505b848310156118a057823582529183019190830190611887565b979650505050505050565b600082601f8301126118bc57600080fd5b813567ffffffffffffffff8111156118d6576118d66117e4565b6118e9601f8201601f19166020016117fa565b8181528460208386010111156118fe57600080fd5b816020850160208301376000918101602001919091529392505050565b600080600080600060a0868803121561193357600080fd5b853561193e81611740565b9450602086013561194e81611740565b9350604086013567ffffffffffffffff8082111561196b57600080fd5b61197789838a0161182b565b9450606088013591508082111561198d57600080fd5b61199989838a0161182b565b935060808801359150808211156119af57600080fd5b506119bc888289016118ab565b9150509295509295909350565b600080600080600060a086880312156119e157600080fd5b85356119ec81611740565b945060208601356119fc81611740565b93506040860135925060608601359150608086013567ffffffffffffffff811115611a2657600080fd5b6119bc888289016118ab565b6020808252818101527f4f776e61626c653a2063616c6c6572206973206e6f7420746865206f776e6572604082015260600190565b6020808252601e908201527f6f6e6c79206e6f6e20636f6e747261637473206f7220617070726f7665640000604082015260600190565b6001600160a01b0394851681529290931660208301526040820152606081019190915260a06080820181905260009082015260c00190565b634e487b7160e01b600052601160045260246000fd5b60006001600160801b03808316818516808303821115611b0e57611b0e611ad6565b01949350505050565b6001600160801b039490941684526001600160a01b039290921660208401526040830152606082015260800190565b60008060408385031215611b5957600080fd5b8251611b6481611740565b6020939093015192949293505050565b60006001600160801b0380831681851681830481118215151615611b9a57611b9a611ad6565b02949350505050565b60006001600160801b0380841680611bcb57634e487b7160e01b600052601260045260246000fd5b92169190910492915050565b600061ffff83811690831681811015611bf257611bf2611ad6565b039392505050565b600082821015611c0c57611c0c611ad6565b500390565b6000825160005b81811015611c325760208186018101518583015201611c18565b81811115611c41576000828501525b509190910192915050565b600060208284031215611c5e57600080fd5b815180151581146115a357600080fdfea26469706673582212207b998e5e87eaace8d0baab249db9ccd1bcf584f951a632b903729b309fd5492d64736f6c63430008090033",
  "linkReferences": {},
  "deployedLinkReferences": {}
}