{
  "_format": "hh-sol-artifact-1",
  "contractName": "ERC721ListingMarketplace",
  "sourceName": "contracts/ERC721Marketplace/ERC721ListingMarketplace.sol",
  "abi": [
    {
      "inputs": [
        {
          "internalType": "address payable",
          "name": "_feeDestination",
          "type": "address"
        }
      ],
      "stateMutability": "nonpayable",
      "type": "constructor"
    },
    {
      "anonymous": false,
      "inputs": [
        {
          "indexed": true,
          "internalType": "bytes32",
          "name": "id",
          "type": "bytes32"
        },
        {
          "indexed": true,
          "internalType": "address",
          "name": "owner",
          "type": "address"
        },
        {
          "indexed": true,
          "internalType": "address",
          "name": "offeror",
          "type": "address"
        },
        {
          "indexed": false,
          "internalType": "uint128",
          "name": "offer",
          "type": "uint128"
        },
        {
          "indexed": false,
          "internalType": "address",
          "name": "tokenAddress",
          "type": "address"
        },
        {
          "indexed": false,
          "internalType": "uint256",
          "name": "tokenId",
          "type": "uint256"
        }
      ],
      "name": "ListingCompleted",
      "type": "event"
    },
    {
      "anonymous": false,
      "inputs": [
        {
          "indexed": true,
          "internalType": "bytes32",
          "name": "id",
          "type": "bytes32"
        },
        {
          "indexed": true,
          "internalType": "address",
          "name": "owner",
          "type": "address"
        },
        {
          "indexed": false,
          "internalType": "address",
          "name": "tokenAddress",
          "type": "address"
        },
        {
          "indexed": false,
          "internalType": "uint256",
          "name": "tokenId",
          "type": "uint256"
        }
      ],
      "name": "ListingCreated",
      "type": "event"
    },
    {
      "anonymous": false,
      "inputs": [
        {
          "indexed": true,
          "internalType": "bytes32",
          "name": "id",
          "type": "bytes32"
        },
        {
          "indexed": true,
          "internalType": "address",
          "name": "owner",
          "type": "address"
        },
        {
          "indexed": true,
          "internalType": "address",
          "name": "offeror",
          "type": "address"
        },
        {
          "indexed": false,
          "internalType": "uint128",
          "name": "offer",
          "type": "uint128"
        },
        {
          "indexed": false,
          "internalType": "address",
          "name": "tokenAddress",
          "type": "address"
        },
        {
          "indexed": false,
          "internalType": "uint256",
          "name": "tokenId",
          "type": "uint256"
        }
      ],
      "name": "ListingOfferPlaced",
      "type": "event"
    },
    {
      "anonymous": false,
      "inputs": [
        {
          "indexed": true,
          "internalType": "bytes32",
          "name": "id",
          "type": "bytes32"
        },
        {
          "indexed": true,
          "internalType": "address",
          "name": "owner",
          "type": "address"
        },
        {
          "indexed": true,
          "internalType": "address",
          "name": "offeror",
          "type": "address"
        },
        {
          "indexed": false,
          "internalType": "uint128",
          "name": "offer",
          "type": "uint128"
        },
        {
          "indexed": false,
          "internalType": "address",
          "name": "tokenAddress",
          "type": "address"
        },
        {
          "indexed": false,
          "internalType": "uint256",
          "name": "tokenId",
          "type": "uint256"
        }
      ],
      "name": "ListingOfferWithdrawn",
      "type": "event"
    },
    {
      "anonymous": false,
      "inputs": [
        {
          "indexed": true,
          "internalType": "bytes32",
          "name": "id",
          "type": "bytes32"
        },
        {
          "indexed": true,
          "internalType": "address",
          "name": "owner",
          "type": "address"
        },
        {
          "indexed": true,
          "internalType": "address",
          "name": "offeror",
          "type": "address"
        },
        {
          "indexed": false,
          "internalType": "uint128",
          "name": "offer",
          "type": "uint128"
        },
        {
          "indexed": false,
          "internalType": "address",
          "name": "tokenAddress",
          "type": "address"
        },
        {
          "indexed": false,
          "internalType": "uint256",
          "name": "tokenId",
          "type": "uint256"
        }
      ],
      "name": "ListingRemoved",
      "type": "event"
    },
    {
      "anonymous": false,
      "inputs": [
        {
          "indexed": true,
          "internalType": "address",
          "name": "previousOwner",
          "type": "address"
        },
        {
          "indexed": true,
          "internalType": "address",
          "name": "newOwner",
          "type": "address"
        }
      ],
      "name": "OwnershipTransferred",
      "type": "event"
    },
    {
      "inputs": [
        {
          "internalType": "bytes32",
          "name": "_id",
          "type": "bytes32"
        }
      ],
      "name": "acceptListingOffer",
      "outputs": [],
      "stateMutability": "nonpayable",
      "type": "function"
    },
    {
      "inputs": [
        {
          "internalType": "address",
          "name": "_contractAddress",
          "type": "address"
        }
      ],
      "name": "addApprovedContract",
      "outputs": [],
      "stateMutability": "nonpayable",
      "type": "function"
    },
    {
      "inputs": [
        {
          "internalType": "address",
          "name": "",
          "type": "address"
        }
      ],
      "name": "approvedContracts",
      "outputs": [
        {
          "internalType": "bool",
          "name": "",
          "type": "bool"
        }
      ],
      "stateMutability": "view",
      "type": "function"
    },
    {
      "inputs": [
        {
          "internalType": "uint16",
          "name": "_fee",
          "type": "uint16"
        }
      ],
      "name": "changeFee",
      "outputs": [],
      "stateMutability": "nonpayable",
      "type": "function"
    },
    {
      "inputs": [
        {
          "internalType": "address payable",
          "name": "_feeDestination",
          "type": "address"
        }
      ],
      "name": "changeFeeDestination",
      "outputs": [],
      "stateMutability": "nonpayable",
      "type": "function"
    },
    {
      "inputs": [
        {
          "internalType": "address",
          "name": "_tokenAddress",
          "type": "address"
        },
        {
          "internalType": "uint256",
          "name": "_tokenId",
          "type": "uint256"
        }
      ],
      "name": "createListing",
      "outputs": [
        {
          "internalType": "bytes32",
          "name": "",
          "type": "bytes32"
        }
      ],
      "stateMutability": "nonpayable",
      "type": "function"
    },
    {
      "inputs": [],
      "name": "fee",
      "outputs": [
        {
          "internalType": "uint16",
          "name": "",
          "type": "uint16"
        }
      ],
      "stateMutability": "view",
      "type": "function"
    },
    {
      "inputs": [],
      "name": "feeDestination",
      "outputs": [
        {
          "internalType": "address payable",
          "name": "",
          "type": "address"
        }
      ],
      "stateMutability": "view",
      "type": "function"
    },
    {
      "inputs": [
        {
          "internalType": "bytes32",
          "name": "",
          "type": "bytes32"
        }
      ],
      "name": "listings",
      "outputs": [
        {
          "internalType": "address",
          "name": "tokenAddress",
          "type": "address"
        },
        {
          "internalType": "uint256",
          "name": "tokenId",
          "type": "uint256"
        },
        {
          "internalType": "address",
          "name": "owner",
          "type": "address"
        },
        {
          "internalType": "uint128",
          "name": "offer",
          "type": "uint128"
        },
        {
          "internalType": "address",
          "name": "offeror",
          "type": "address"
        },
        {
          "internalType": "uint128",
          "name": "offerPlacedAt",
          "type": "uint128"
        }
      ],
      "stateMutability": "view",
      "type": "function"
    },
    {
      "inputs": [
        {
          "internalType": "address",
          "name": "",
          "type": "address"
        },
        {
          "internalType": "address",
          "name": "",
          "type": "address"
        },
        {
          "internalType": "uint256",
          "name": "",
          "type": "uint256"
        },
        {
          "internalType": "bytes",
          "name": "",
          "type": "bytes"
        }
      ],
      "name": "onERC721Received",
      "outputs": [
        {
          "internalType": "bytes4",
          "name": "",
          "type": "bytes4"
        }
      ],
      "stateMutability": "nonpayable",
      "type": "function"
    },
    {
      "inputs": [],
      "name": "owner",
      "outputs": [
        {
          "internalType": "address",
          "name": "",
          "type": "address"
        }
      ],
      "stateMutability": "view",
      "type": "function"
    },
    {
      "inputs": [
        {
          "internalType": "bytes32",
          "name": "_id",
          "type": "bytes32"
        }
      ],
      "name": "placeOffer",
      "outputs": [],
      "stateMutability": "payable",
      "type": "function"
    },
    {
      "inputs": [
        {
          "internalType": "bytes32",
          "name": "_id",
          "type": "bytes32"
        }
      ],
      "name": "removeListing",
      "outputs": [],
      "stateMutability": "nonpayable",
      "type": "function"
    },
    {
      "inputs": [],
      "name": "renounceOwnership",
      "outputs": [],
      "stateMutability": "nonpayable",
      "type": "function"
    },
    {
      "inputs": [
        {
          "internalType": "address",
          "name": "newOwner",
          "type": "address"
        }
      ],
      "name": "transferOwnership",
      "outputs": [],
      "stateMutability": "nonpayable",
      "type": "function"
    },
    {
      "inputs": [
        {
          "internalType": "bytes32",
          "name": "_id",
          "type": "bytes32"
        }
      ],
      "name": "withdrawOffer",
      "outputs": [],
      "stateMutability": "nonpayable",
      "type": "function"
    }
  ],
  "bytecode": "0x60806040526003805461ffff60a01b1916607d60a21b17905534801561002457600080fd5b5060405162001abc38038062001abc833981016040819052610045916100a4565b61004e33610054565b506100d4565b600080546001600160a01b038381166001600160a01b0319831681178455604051919092169283917f8be0079c531659141344cd1fd0a4f28419497f9722a3daafe3b4186f6b6457e09190a35050565b6000602082840312156100b657600080fd5b81516001600160a01b03811681146100cd57600080fd5b9392505050565b6119d880620000e46000396000f3fe6080604052600436106100f35760003560e01c8063715018a61161008a578063c71f681811610059578063c71f68181461036e578063ddca3f4314610381578063de53fcd5146103b6578063f2fde38b146103d657600080fd5b8063715018a61461024357806385e1c724146102585780638da5cb5b14610286578063c18b8db4146102b857600080fd5b80633407facd116100c65780633407facd146101c3578063550ee133146101e35780635ff548691461020357806367bd3df21461022357600080fd5b8063135171be146100f8578063150b7a021461011a5780631e18cb891461016357806326749ad714610183575b600080fd5b34801561010457600080fd5b50610118610113366004611627565b6103f6565b005b34801561012657600080fd5b5061014561013536600461165a565b630a85bd0160e11b949350505050565b6040516001600160e01b031990911681526020015b60405180910390f35b34801561016f57600080fd5b5061011861017e366004611627565b610450565b34801561018f57600080fd5b506101b361019e366004611627565b60016020526000908152604090205460ff1681565b604051901515815260200161015a565b3480156101cf57600080fd5b506101186101de36600461173a565b61049c565b3480156101ef57600080fd5b506101186101fe36600461175e565b610531565b34801561020f57600080fd5b5061011861021e36600461175e565b6108da565b34801561022f57600080fd5b5061011861023e36600461175e565b610a67565b34801561024f57600080fd5b50610118611008565b34801561026457600080fd5b50610278610273366004611777565b61103e565b60405190815260200161015a565b34801561029257600080fd5b506000546001600160a01b03165b6040516001600160a01b03909116815260200161015a565b3480156102c457600080fd5b506103226102d336600461175e565b60026020819052600091825260409091208054600182015492820154600383015460048401546005909401546001600160a01b039384169594928416936001600160801b039283169316911686565b604080516001600160a01b0397881681526020810196909652938616938501939093526001600160801b03918216606085015290931660808301529190911660a082015260c00161015a565b61011861037c36600461175e565b611238565b34801561038d57600080fd5b506003546103a390600160a01b900461ffff1681565b60405161ffff909116815260200161015a565b3480156103c257600080fd5b506003546102a0906001600160a01b031681565b3480156103e257600080fd5b506101186103f1366004611627565b6113e8565b6000546001600160a01b031633146104295760405162461bcd60e51b8152600401610420906117a3565b60405180910390fd5b6001600160a01b03166000908152600160208190526040909120805460ff19169091179055565b6000546001600160a01b0316331461047a5760405162461bcd60e51b8152600401610420906117a3565b600380546001600160a01b0319166001600160a01b0392909216919091179055565b6000546001600160a01b031633146104c65760405162461bcd60e51b8152600401610420906117a3565b6102ee8161ffff16111561050f5760405162461bcd60e51b815260206004820152601060248201526f746f6f20626967206f6620612066656560801b6044820152606401610420565b6003805461ffff909216600160a01b0261ffff60a01b19909216919091179055565b6000818152600260208190526040909120015481906001600160a01b031633146105925760405162461bcd60e51b815260206004820152601260248201527137b7363c903634b9ba34b7339037bbb732b960711b6044820152606401610420565b333b15806105af57503360009081526001602052604090205460ff165b6105cb5760405162461bcd60e51b8152600401610420906117d8565b6000600260008481526020019081526020016000206040518060c00160405290816000820160009054906101000a90046001600160a01b03166001600160a01b03166001600160a01b03168152602001600182015481526020016002820160009054906101000a90046001600160a01b03166001600160a01b03166001600160a01b031681526020016003820160009054906101000a90046001600160801b03166001600160801b03166001600160801b031681526020016004820160009054906101000a90046001600160a01b03166001600160a01b03166001600160a01b031681526020016005820160009054906101000a90046001600160801b03166001600160801b03166001600160801b031681525050905060026000848152602001908152602001600020600080820160006101000a8154906001600160a01b03021916905560018201600090556002820160006101000a8154906001600160a01b0302191690556003820160006101000a8154906001600160801b0302191690556004820160006101000a8154906001600160a01b0302191690556005820160006101000a8154906001600160801b030219169055505060006001600160a01b031681608001516001600160a01b0316141580156107b5575060808101516001600160a01b03163b155b156108065780608001516001600160a01b03166108fc82606001516001600160801b03169081150290604051600060405180830381858888f19350505050158015610804573d6000803e3d6000fd5b505b80516020820151604051632142170760e11b815230600482015233602482015260448101919091526001600160a01b03909116906342842e0e90606401600060405180830381600087803b15801561085d57600080fd5b505af1158015610871573d6000803e3d6000fd5b5050505080608001516001600160a01b0316336001600160a01b0316847fb75cd6b76237c30fa0fa7515a6e79cb549c24e02c8bcfd20564b1d3831c40fd28460600151856000015186602001516040516108cd9392919061180f565b60405180910390a4505050565b60008181526002602052604090206004015481906001600160a01b031633146109345760405162461bcd60e51b815260206004820152600c60248201526b37b7363c9037b33332b937b960a11b6044820152606401610420565b6000828152600260205260409020600581015461095d906001600160801b03166202a30061184f565b6001600160801b031642116109ab5760405162461bcd60e51b81526020600482015260146024820152737769746864726177616c20746f6f206561726c7960601b6044820152606401610420565b6003810180546001600160801b03199081169091556004820180546001600160a01b0319169055600582018054909116905560405133906108fc9060009081818181818888f19350505050158015610a07573d6000803e3d6000fd5b50600281015460038201548254600184015460405133946001600160a01b039081169489947f3f8d0f7bbf13434505473027073f38c6b21c4634787688c3f0ebf5817a6f74cf946108cd946001600160801b03909316939091169161180f565b6000818152600260208190526040909120015481906001600160a01b03163314610ac85760405162461bcd60e51b815260206004820152601260248201527137b7363c903634b9ba34b7339037bbb732b960711b6044820152606401610420565b60008281526002602052604090206004015482906001600160a01b0316610b295760405162461bcd60e51b81526020600482015260156024820152743634b9ba34b733903bb4ba341037379037b33332b960591b6044820152606401610420565b333b1580610b4657503360009081526001602052604090205460ff165b610b625760405162461bcd60e51b8152600401610420906117d8565b6000600260008581526020019081526020016000206040518060c00160405290816000820160009054906101000a90046001600160a01b03166001600160a01b03166001600160a01b03168152602001600182015481526020016002820160009054906101000a90046001600160a01b03166001600160a01b03166001600160a01b031681526020016003820160009054906101000a90046001600160801b03166001600160801b03166001600160801b031681526020016004820160009054906101000a90046001600160a01b03166001600160a01b03166001600160a01b031681526020016005820160009054906101000a90046001600160801b03166001600160801b03166001600160801b031681525050905060026000858152602001908152602001600020600080820160006101000a8154906001600160a01b03021916905560018201600090556002820160006101000a8154906001600160a01b0302191690556003820160006101000a8154906001600160801b0302191690556004820160006101000a8154906001600160a01b0302191690556005820160006101000a8154906001600160801b0302191690555050600080610d4363152a902d60e11b84600001516001600160a01b031661148390919063ffffffff16565b15610de15782516020840151606085015160405163152a902d60e11b815260048101929092526001600160801b031660248201526001600160a01b0390911690632a55205a90604401604080518083038186803b158015610da357600080fd5b505afa158015610db7573d6000803e3d6000fd5b505050506040513d601f19601f82011682018060405250810190610ddb919061187a565b90925090505b8015610e1f576040516001600160a01b0383169082156108fc029083906000818181858888f19350505050158015610e1d573d6000803e3d6000fd5b505b600354600160a01b900461ffff1615610ea35760035460608401516001600160a01b038216916108fc9161271091610e6391600160a01b90910461ffff16906118a8565b610e6d91906118d7565b6001600160801b03169081150290604051600060405180830381858888f19350505050158015610ea1573d6000803e3d6000fd5b505b60035433906108fc90839061271090610ec790600160a01b900461ffff168261190b565b61ffff168760600151610eda91906118a8565b610ee491906118d7565b6001600160801b0316610ef7919061192e565b6040518115909202916000818181858888f19350505050158015610f1f573d6000803e3d6000fd5b5060808301516001600160a01b03163b610fa957825160808401516020850151604051632142170760e11b81523060048201526001600160a01b03928316602482015260448101919091529116906342842e0e90606401600060405180830381600087803b158015610f9057600080fd5b505af1158015610fa4573d6000803e3d6000fd5b505050505b60808301516060840151845160208601516040516001600160a01b039094169333938b937f440849bf8c6b8fbd83e1a5099df9e5161b82212f63ded06b23c56a1988bcec3d93610ff89361180f565b60405180910390a4505050505050565b6000546001600160a01b031633146110325760405162461bcd60e51b8152600401610420906117a3565b61103c60006114a6565b565b6000333b158061105d57503360009081526001602052604090205460ff165b6110795760405162461bcd60e51b8152600401610420906117d8565b604051632142170760e11b8152326004820152306024820152604481018390526001600160a01b038416906342842e0e90606401600060405180830381600087803b1580156110c757600080fd5b505af11580156110db573d6000803e3d6000fd5b50506040516bffffffffffffffffffffffff19606087811b821660208401526034830187905232901b16605482015242606882015260009250608801905060408051808303601f19018152828252805160209182012060c0840183526001600160a01b0388811680865283860189815232878701818152600060608a0181815260808b0182815260a08c018381528984526002808c52938c90209c518d546001600160a01b0319908116918b16919091178e55965160018e01559351928c0180548716938916939093179092555160038b0180546001600160801b03199081166001600160801b0393841617909155915160048c01805490961697169690961790935551600590980180549092169790931696909617909555835194855291840187905293509183917f2e75536d92c9d58e8107923a2a78850d1a3dbe14144ef3f603620bd761a71260910160405180910390a390505b92915050565b333b158061125557503360009081526001602052604090205460ff165b6112715760405162461bcd60e51b8152600401610420906117d8565b600081815260026020526040902060038101546001600160801b031634116112cb5760405162461bcd60e51b815260206004820152600d60248201526c6f6666657220746f6f206c6f7760981b6044820152606401610420565b60048101546001600160a01b0316158015906112f3575060048101546001600160a01b03163b155b1561134457600481015460038201546040516001600160a01b03909216916001600160801b0390911680156108fc02916000818181858888f19350505050158015611342573d6000803e3d6000fd5b505b6004810180546001600160a01b031916339081179091556003820180546001600160801b03348181166001600160801b03199384161790935560058501805442909216919092161790556002830154835460018501546040516001600160a01b039384169488947f3e0240dbc407d53e527dbb757f2a5c61ad4deba5c22346be82382d5a5a41c9ab946113dc9492939116919061180f565b60405180910390a45050565b6000546001600160a01b031633146114125760405162461bcd60e51b8152600401610420906117a3565b6001600160a01b0381166114775760405162461bcd60e51b815260206004820152602660248201527f4f776e61626c653a206e6577206f776e657220697320746865207a65726f206160448201526564647265737360d01b6064820152608401610420565b611480816114a6565b50565b600061148e836114f6565b801561149f575061149f8383611529565b9392505050565b600080546001600160a01b038381166001600160a01b0319831681178455604051919092169283917f8be0079c531659141344cd1fd0a4f28419497f9722a3daafe3b4186f6b6457e09190a35050565b6000611509826301ffc9a760e01b611529565b80156112325750611522826001600160e01b0319611529565b1592915050565b604080516001600160e01b0319831660248083019190915282518083039091018152604490910182526020810180516001600160e01b03166301ffc9a760e01b179052905160009190829081906001600160a01b0387169061753090611590908690611945565b6000604051808303818686fa925050503d80600081146115cc576040519150601f19603f3d011682016040523d82523d6000602084013e6115d1565b606091505b50915091506020815110156115ec5760009350505050611232565b8180156116085750808060200190518101906116089190611980565b9695505050505050565b6001600160a01b038116811461148057600080fd5b60006020828403121561163957600080fd5b813561149f81611612565b634e487b7160e01b600052604160045260246000fd5b6000806000806080858703121561167057600080fd5b843561167b81611612565b9350602085013561168b81611612565b925060408501359150606085013567ffffffffffffffff808211156116af57600080fd5b818701915087601f8301126116c357600080fd5b8135818111156116d5576116d5611644565b604051601f8201601f19908116603f011681019083821181831017156116fd576116fd611644565b816040528281528a602084870101111561171657600080fd5b82602086016020830137600060208483010152809550505050505092959194509250565b60006020828403121561174c57600080fd5b813561ffff8116811461149f57600080fd5b60006020828403121561177057600080fd5b5035919050565b6000806040838503121561178a57600080fd5b823561179581611612565b946020939093013593505050565b6020808252818101527f4f776e61626c653a2063616c6c6572206973206e6f7420746865206f776e6572604082015260600190565b6020808252601e908201527f6f6e6c79206e6f6e20636f6e747261637473206f7220617070726f7665640000604082015260600190565b6001600160801b039390931683526001600160a01b03919091166020830152604082015260600190565b634e487b7160e01b600052601160045260246000fd5b60006001600160801b0380831681851680830382111561187157611871611839565b01949350505050565b6000806040838503121561188d57600080fd5b825161189881611612565b6020939093015192949293505050565b60006001600160801b03808316818516818304811182151516156118ce576118ce611839565b02949350505050565b60006001600160801b03808416806118ff57634e487b7160e01b600052601260045260246000fd5b92169190910492915050565b600061ffff8381169083168181101561192657611926611839565b039392505050565b60008282101561194057611940611839565b500390565b6000825160005b81811015611966576020818601810151858301520161194c565b81811115611975576000828501525b509190910192915050565b60006020828403121561199257600080fd5b8151801515811461149f57600080fdfea2646970667358221220d046fcea86b4d5973bad6909e569c3b02ca58c32893609d4acb891a5479e2ced64736f6c63430008090033",
  "linkReferences": {},
  "deployedLinkReferences": {}
}