{
  "_format": "hh-sol-artifact-1",
  "contractName": "ERC1155AuctionMarketplace",
  "sourceName": "contracts/ERC1155Marketplace/ERC1155AuctionMarketplace.sol",
  "abi": [
    {
      "inputs": [
        {
          "internalType": "address payable",
          "name": "_feeDestination",
          "type": "address"
        }
      ],
      "stateMutability": "nonpayable",
      "type": "constructor"
    },
    {
      "anonymous": false,
      "inputs": [
        {
          "indexed": true,
          "internalType": "bytes32",
          "name": "id",
          "type": "bytes32"
        },
        {
          "indexed": true,
          "internalType": "address",
          "name": "bidder",
          "type": "address"
        },
        {
          "indexed": false,
          "internalType": "uint128",
          "name": "bid",
          "type": "uint128"
        },
        {
          "indexed": false,
          "internalType": "address",
          "name": "tokenAddress",
          "type": "address"
        },
        {
          "indexed": false,
          "internalType": "uint256",
          "name": "tokenId",
          "type": "uint256"
        },
        {
          "indexed": false,
          "internalType": "uint256",
          "name": "tokenQty",
          "type": "uint256"
        }
      ],
      "name": "AuctionBidPlaced",
      "type": "event"
    },
    {
      "anonymous": false,
      "inputs": [
        {
          "indexed": true,
          "internalType": "bytes32",
          "name": "id",
          "type": "bytes32"
        }
      ],
      "name": "AuctionClaimed",
      "type": "event"
    },
    {
      "anonymous": false,
      "inputs": [
        {
          "indexed": true,
          "internalType": "bytes32",
          "name": "id",
          "type": "bytes32"
        },
        {
          "indexed": true,
          "internalType": "address",
          "name": "owner",
          "type": "address"
        },
        {
          "indexed": false,
          "internalType": "address",
          "name": "tokenAddress",
          "type": "address"
        },
        {
          "indexed": false,
          "internalType": "uint256",
          "name": "tokenId",
          "type": "uint256"
        },
        {
          "indexed": false,
          "internalType": "uint256",
          "name": "tokenQty",
          "type": "uint256"
        }
      ],
      "name": "AuctionCreated",
      "type": "event"
    },
    {
      "anonymous": false,
      "inputs": [
        {
          "indexed": true,
          "internalType": "address",
          "name": "previousOwner",
          "type": "address"
        },
        {
          "indexed": true,
          "internalType": "address",
          "name": "newOwner",
          "type": "address"
        }
      ],
      "name": "OwnershipTransferred",
      "type": "event"
    },
    {
      "inputs": [
        {
          "internalType": "address",
          "name": "_contractAddress",
          "type": "address"
        }
      ],
      "name": "addApprovedContract",
      "outputs": [],
      "stateMutability": "nonpayable",
      "type": "function"
    },
    {
      "inputs": [
        {
          "internalType": "address",
          "name": "",
          "type": "address"
        }
      ],
      "name": "approvedContracts",
      "outputs": [
        {
          "internalType": "bool",
          "name": "",
          "type": "bool"
        }
      ],
      "stateMutability": "view",
      "type": "function"
    },
    {
      "inputs": [
        {
          "internalType": "bytes32",
          "name": "",
          "type": "bytes32"
        }
      ],
      "name": "auctions",
      "outputs": [
        {
          "internalType": "address",
          "name": "tokenAddress",
          "type": "address"
        },
        {
          "internalType": "uint256",
          "name": "tokenId",
          "type": "uint256"
        },
        {
          "internalType": "uint256",
          "name": "tokenQty",
          "type": "uint256"
        },
        {
          "internalType": "address",
          "name": "owner",
          "type": "address"
        },
        {
          "internalType": "uint128",
          "name": "bid",
          "type": "uint128"
        },
        {
          "internalType": "address",
          "name": "bidder",
          "type": "address"
        },
        {
          "internalType": "uint128",
          "name": "endsAt",
          "type": "uint128"
        }
      ],
      "stateMutability": "view",
      "type": "function"
    },
    {
      "inputs": [
        {
          "internalType": "bytes32",
          "name": "_id",
          "type": "bytes32"
        }
      ],
      "name": "bidOnAuction",
      "outputs": [],
      "stateMutability": "payable",
      "type": "function"
    },
    {
      "inputs": [
        {
          "internalType": "uint16",
          "name": "_fee",
          "type": "uint16"
        }
      ],
      "name": "changeFee",
      "outputs": [],
      "stateMutability": "nonpayable",
      "type": "function"
    },
    {
      "inputs": [
        {
          "internalType": "address payable",
          "name": "_feeDestination",
          "type": "address"
        }
      ],
      "name": "changeFeeDestination",
      "outputs": [],
      "stateMutability": "nonpayable",
      "type": "function"
    },
    {
      "inputs": [
        {
          "internalType": "bytes32",
          "name": "_id",
          "type": "bytes32"
        }
      ],
      "name": "claimAuction",
      "outputs": [],
      "stateMutability": "nonpayable",
      "type": "function"
    },
    {
      "inputs": [
        {
          "internalType": "address",
          "name": "_tokenAddress",
          "type": "address"
        },
        {
          "internalType": "uint256",
          "name": "_tokenId",
          "type": "uint256"
        },
        {
          "internalType": "uint256",
          "name": "_tokenQty",
          "type": "uint256"
        },
        {
          "internalType": "uint128",
          "name": "_endsAt",
          "type": "uint128"
        }
      ],
      "name": "createAuction",
      "outputs": [
        {
          "internalType": "bytes32",
          "name": "",
          "type": "bytes32"
        }
      ],
      "stateMutability": "nonpayable",
      "type": "function"
    },
    {
      "inputs": [],
      "name": "fee",
      "outputs": [
        {
          "internalType": "uint16",
          "name": "",
          "type": "uint16"
        }
      ],
      "stateMutability": "view",
      "type": "function"
    },
    {
      "inputs": [],
      "name": "feeDestination",
      "outputs": [
        {
          "internalType": "address payable",
          "name": "",
          "type": "address"
        }
      ],
      "stateMutability": "view",
      "type": "function"
    },
    {
      "inputs": [
        {
          "internalType": "address",
          "name": "",
          "type": "address"
        },
        {
          "internalType": "address",
          "name": "",
          "type": "address"
        },
        {
          "internalType": "uint256[]",
          "name": "",
          "type": "uint256[]"
        },
        {
          "internalType": "uint256[]",
          "name": "",
          "type": "uint256[]"
        },
        {
          "internalType": "bytes",
          "name": "",
          "type": "bytes"
        }
      ],
      "name": "onERC1155BatchReceived",
      "outputs": [
        {
          "internalType": "bytes4",
          "name": "",
          "type": "bytes4"
        }
      ],
      "stateMutability": "nonpayable",
      "type": "function"
    },
    {
      "inputs": [
        {
          "internalType": "address",
          "name": "",
          "type": "address"
        },
        {
          "internalType": "address",
          "name": "",
          "type": "address"
        },
        {
          "internalType": "uint256",
          "name": "",
          "type": "uint256"
        },
        {
          "internalType": "uint256",
          "name": "",
          "type": "uint256"
        },
        {
          "internalType": "bytes",
          "name": "",
          "type": "bytes"
        }
      ],
      "name": "onERC1155Received",
      "outputs": [
        {
          "internalType": "bytes4",
          "name": "",
          "type": "bytes4"
        }
      ],
      "stateMutability": "nonpayable",
      "type": "function"
    },
    {
      "inputs": [],
      "name": "owner",
      "outputs": [
        {
          "internalType": "address",
          "name": "",
          "type": "address"
        }
      ],
      "stateMutability": "view",
      "type": "function"
    },
    {
      "inputs": [],
      "name": "renounceOwnership",
      "outputs": [],
      "stateMutability": "nonpayable",
      "type": "function"
    },
    {
      "inputs": [
        {
          "internalType": "bytes4",
          "name": "interfaceId",
          "type": "bytes4"
        }
      ],
      "name": "supportsInterface",
      "outputs": [
        {
          "internalType": "bool",
          "name": "",
          "type": "bool"
        }
      ],
      "stateMutability": "view",
      "type": "function"
    },
    {
      "inputs": [
        {
          "internalType": "address",
          "name": "newOwner",
          "type": "address"
        }
      ],
      "name": "transferOwnership",
      "outputs": [],
      "stateMutability": "nonpayable",
      "type": "function"
    }
  ],
  "bytecode": "0x60806040526003805461ffff60a01b1916607d60a21b17905534801561002457600080fd5b5060405161191b38038061191b833981016040819052610043916100c1565b61004c33610071565b600380546001600160a01b0319166001600160a01b03929092169190911790556100f1565b600080546001600160a01b038381166001600160a01b0319831681178455604051919092169283917f8be0079c531659141344cd1fd0a4f28419497f9722a3daafe3b4186f6b6457e09190a35050565b6000602082840312156100d357600080fd5b81516001600160a01b03811681146100ea57600080fd5b9392505050565b61181b806101006000396000f3fe6080604052600436106100f35760003560e01c8063a65662b31161008a578063ddca3f4311610059578063ddca3f431461036c578063de53fcd5146103a1578063f23a6e61146103c1578063f2fde38b146103ed57600080fd5b8063a65662b3146102c6578063b7747267146102f4578063bc197c8114610314578063d43028051461035957600080fd5b806326749ad7116100c657806326749ad71461022f5780633407facd1461025f578063715018a61461027f5780638da5cb5b1461029457600080fd5b806301ffc9a7146100f8578063135171be1461012d5780631e18cb891461014f5780631edbc5be1461016f575b600080fd5b34801561010457600080fd5b506101186101133660046112c6565b61040d565b60405190151581526020015b60405180910390f35b34801561013957600080fd5b5061014d610148366004611305565b610444565b005b34801561015b57600080fd5b5061014d61016a366004611305565b61049e565b34801561017b57600080fd5b506101e061018a366004611322565b600260208190526000918252604090912080546001820154928201546003830154600484015460058501546006909501546001600160a01b0394851696959394928316936001600160801b039283169316911687565b604080516001600160a01b039889168152602081019790975286019490945291851660608501526001600160801b039081166080850152931660a08301529190911660c082015260e001610124565b34801561023b57600080fd5b5061011861024a366004611305565b60016020526000908152604090205460ff1681565b34801561026b57600080fd5b5061014d61027a36600461133b565b6104ea565b34801561028b57600080fd5b5061014d61057f565b3480156102a057600080fd5b506000546001600160a01b03165b6040516001600160a01b039091168152602001610124565b3480156102d257600080fd5b506102e66102e136600461135f565b6105b5565b604051908152602001610124565b34801561030057600080fd5b5061014d61030f366004611322565b610898565b34801561032057600080fd5b5061034061032f3660046114ec565b63bc197c8160e01b95945050505050565b6040516001600160e01b03199091168152602001610124565b61014d610367366004611322565b610e9c565b34801561037857600080fd5b5060035461038e90600160a01b900461ffff1681565b60405161ffff9091168152602001610124565b3480156103ad57600080fd5b506003546102ae906001600160a01b031681565b3480156103cd57600080fd5b506103406103dc36600461159a565b63f23a6e6160e01b95945050505050565b3480156103f957600080fd5b5061014d610408366004611305565b61109c565b60006001600160e01b03198216630271189760e51b148061043e57506301ffc9a760e01b6001600160e01b03198316145b92915050565b6000546001600160a01b031633146104775760405162461bcd60e51b815260040161046e90611603565b60405180910390fd5b6001600160a01b03166000908152600160208190526040909120805460ff19169091179055565b6000546001600160a01b031633146104c85760405162461bcd60e51b815260040161046e90611603565b600380546001600160a01b0319166001600160a01b0392909216919091179055565b6000546001600160a01b031633146105145760405162461bcd60e51b815260040161046e90611603565b6102ee8161ffff16111561055d5760405162461bcd60e51b815260206004820152601060248201526f746f6f20626967206f6620612066656560801b604482015260640161046e565b6003805461ffff909216600160a01b0261ffff60a01b19909216919091179055565b6000546001600160a01b031633146105a95760405162461bcd60e51b815260040161046e90611603565b6105b36000611137565b565b6000333b15806105d457503360009081526001602052604090205460ff165b6105f05760405162461bcd60e51b815260040161046e90611638565b6040516bffffffffffffffffffffffff19606087811b82166020840152603483018790526054830186905232901b1660748201526001600160801b0319608084901b16608882015242609882015260009060b80160408051601f19818403018152908290528051602090910120637921219560e11b825291506001600160a01b0387169063f242432a9061068e90329030908a908a9060040161166f565b600060405180830381600087803b1580156106a857600080fd5b505af11580156106bc573d6000803e3d6000fd5b505050506040518060e00160405280876001600160a01b03168152602001868152602001858152602001326001600160a01b0316815260200160006001600160801b0316815260200160006001600160a01b03168152602001846001600160801b03168152506002600083815260200190815260200160002060008201518160000160006101000a8154816001600160a01b0302191690836001600160a01b03160217905550602082015181600101556040820151816002015560608201518160030160006101000a8154816001600160a01b0302191690836001600160a01b0316021790555060808201518160040160006101000a8154816001600160801b0302191690836001600160801b0316021790555060a08201518160050160006101000a8154816001600160a01b0302191690836001600160a01b0316021790555060c08201518160060160006101000a8154816001600160801b0302191690836001600160801b03160217905550905050326001600160a01b0316817fed57642d65a31823a39a6611e706411e4c817a871921fad6c617e0b4f4ece369888888604051610887939291906001600160a01b039390931683526020830191909152604082015260600190565b60405180910390a395945050505050565b6000818152600260205260409020600601548190426001600160801b039091161080156108db57506000818152600260205260409020546001600160a01b031615155b61091b5760405162461bcd60e51b8152602060048201526011602482015270185d58dd1a5bdb881b9bdd08195b991959607a1b604482015260640161046e565b333b158061093857503360009081526001602052604090205460ff165b6109545760405162461bcd60e51b815260040161046e90611638565b6000600260008481526020019081526020016000206040518060e00160405290816000820160009054906101000a90046001600160a01b03166001600160a01b03166001600160a01b0316815260200160018201548152602001600282015481526020016003820160009054906101000a90046001600160a01b03166001600160a01b03166001600160a01b031681526020016004820160009054906101000a90046001600160801b03166001600160801b03166001600160801b031681526020016005820160009054906101000a90046001600160a01b03166001600160a01b03166001600160a01b031681526020016006820160009054906101000a90046001600160801b03166001600160801b03166001600160801b031681525050905060026000848152602001908152602001600020600080820160006101000a8154906001600160a01b030219169055600182016000905560028201600090556003820160006101000a8154906001600160a01b0302191690556004820160006101000a8154906001600160801b0302191690556005820160006101000a8154906001600160a01b0302191690556006820160006101000a8154906001600160801b030219169055505060008082600001516001600160a01b0316632a55205a846020015185608001516040518363ffffffff1660e01b8152600401610b6c9291909182526001600160801b0316602082015260400190565b604080518083038186803b158015610b8357600080fd5b505afa158015610b97573d6000803e3d6000fd5b505050506040513d601f19601f82011682018060405250810190610bbb91906116a7565b90925090508015610bfe576040516001600160a01b0383169082156108fc029083906000818181858888f19350505050158015610bfc573d6000803e3d6000fd5b505b8251610c1a906001600160a01b031663152a902d60e11b611187565b15610cb85782516020840151608085015160405163152a902d60e11b815260048101929092526001600160801b031660248201526001600160a01b0390911690632a55205a90604401604080518083038186803b158015610c7a57600080fd5b505afa158015610c8e573d6000803e3d6000fd5b505050506040513d601f19601f82011682018060405250810190610cb291906116a7565b90925090505b600354600160a01b900461ffff1615610d3c5760035460808401516001600160a01b038216916108fc9161271091610cfc91600160a01b90910461ffff16906116eb565b610d06919061171a565b6001600160801b03169081150290604051600060405180830381858888f19350505050158015610d3a573d6000803e3d6000fd5b505b82606001516001600160a01b03166108fc82612710600360149054906101000a900461ffff16612710610d6f919061174e565b61ffff168760800151610d8291906116eb565b610d8c919061171a565b6001600160801b0316610d9f9190611771565b6040518115909202916000818181858888f19350505050158015610dc7573d6000803e3d6000fd5b5060a08301516001600160a01b031615801590610df0575060a08301516001600160a01b03163b155b15610e6a5782600001516001600160a01b031663f242432a308560a00151866020015187604001516040518563ffffffff1660e01b8152600401610e37949392919061166f565b600060405180830381600087803b158015610e5157600080fd5b505af1158015610e65573d6000803e3d6000fd5b505050505b60405185907fdd636676cbde606c0bf9ba33bcb630724c73f8710733e9a20567a4caa991b03490600090a25050505050565b6000818152600260205260409020600601548190426001600160801b039091161015610efa5760405162461bcd60e51b815260206004820152600d60248201526c185d58dd1a5bdb88195b991959609a1b604482015260640161046e565b333b1580610f1757503360009081526001602052604090205460ff165b610f335760405162461bcd60e51b815260040161046e90611638565b600082815260026020526040902060048101546001600160801b03163411610f8b5760405162461bcd60e51b815260206004820152600b60248201526a62696420746f6f206c6f7760a81b604482015260640161046e565b60058101546001600160a01b031615801590610fb3575060058101546001600160a01b03163b155b1561100457600581015460048201546040516001600160a01b03909216916001600160801b0390911680156108fc02916000818181858888f19350505050158015611002573d6000803e3d6000fd5b505b600581018054336001600160a01b031990911681179091556004820180546001600160801b031916346001600160801b0316908117909155825460018401546002850154604080519485526001600160a01b03909316602085015291830152606082015284907f6050505a3711049c64ad6af2eb6eb208e2edea028af51f006471cc7fe0de6d589060800160405180910390a3505050565b6000546001600160a01b031633146110c65760405162461bcd60e51b815260040161046e90611603565b6001600160a01b03811661112b5760405162461bcd60e51b815260206004820152602660248201527f4f776e61626c653a206e6577206f776e657220697320746865207a65726f206160448201526564647265737360d01b606482015260840161046e565b61113481611137565b50565b600080546001600160a01b038381166001600160a01b0319831681178455604051919092169283917f8be0079c531659141344cd1fd0a4f28419497f9722a3daafe3b4186f6b6457e09190a35050565b6000611192836111aa565b80156111a357506111a383836111dd565b9392505050565b60006111bd826301ffc9a760e01b6111dd565b801561043e57506111d6826001600160e01b03196111dd565b1592915050565b604080516001600160e01b0319831660248083019190915282518083039091018152604490910182526020810180516001600160e01b03166301ffc9a760e01b179052905160009190829081906001600160a01b0387169061753090611244908690611788565b6000604051808303818686fa925050503d8060008114611280576040519150601f19603f3d011682016040523d82523d6000602084013e611285565b606091505b50915091506020815110156112a0576000935050505061043e565b8180156112bc5750808060200190518101906112bc91906117c3565b9695505050505050565b6000602082840312156112d857600080fd5b81356001600160e01b0319811681146111a357600080fd5b6001600160a01b038116811461113457600080fd5b60006020828403121561131757600080fd5b81356111a3816112f0565b60006020828403121561133457600080fd5b5035919050565b60006020828403121561134d57600080fd5b813561ffff811681146111a357600080fd5b6000806000806080858703121561137557600080fd5b8435611380816112f0565b9350602085013592506040850135915060608501356001600160801b03811681146113aa57600080fd5b939692955090935050565b634e487b7160e01b600052604160045260246000fd5b604051601f8201601f1916810167ffffffffffffffff811182821017156113f4576113f46113b5565b604052919050565b600082601f83011261140d57600080fd5b8135602067ffffffffffffffff821115611429576114296113b5565b8160051b6114388282016113cb565b928352848101820192828101908785111561145257600080fd5b83870192505b8483101561147157823582529183019190830190611458565b979650505050505050565b600082601f83011261148d57600080fd5b813567ffffffffffffffff8111156114a7576114a76113b5565b6114ba601f8201601f19166020016113cb565b8181528460208386010111156114cf57600080fd5b816020850160208301376000918101602001919091529392505050565b600080600080600060a0868803121561150457600080fd5b853561150f816112f0565b9450602086013561151f816112f0565b9350604086013567ffffffffffffffff8082111561153c57600080fd5b61154889838a016113fc565b9450606088013591508082111561155e57600080fd5b61156a89838a016113fc565b9350608088013591508082111561158057600080fd5b5061158d8882890161147c565b9150509295509295909350565b600080600080600060a086880312156115b257600080fd5b85356115bd816112f0565b945060208601356115cd816112f0565b93506040860135925060608601359150608086013567ffffffffffffffff8111156115f757600080fd5b61158d8882890161147c565b6020808252818101527f4f776e61626c653a2063616c6c6572206973206e6f7420746865206f776e6572604082015260600190565b6020808252601e908201527f6f6e6c79206e6f6e20636f6e747261637473206f7220617070726f7665640000604082015260600190565b6001600160a01b0394851681529290931660208301526040820152606081019190915260a06080820181905260009082015260c00190565b600080604083850312156116ba57600080fd5b82516116c5816112f0565b6020939093015192949293505050565b634e487b7160e01b600052601160045260246000fd5b60006001600160801b0380831681851681830481118215151615611711576117116116d5565b02949350505050565b60006001600160801b038084168061174257634e487b7160e01b600052601260045260246000fd5b92169190910492915050565b600061ffff83811690831681811015611769576117696116d5565b039392505050565b600082821015611783576117836116d5565b500390565b6000825160005b818110156117a9576020818601810151858301520161178f565b818111156117b8576000828501525b509190910192915050565b6000602082840312156117d557600080fd5b815180151581146111a357600080fdfea2646970667358221220f964d0d9df3abf7a4095d7a96d2fb6513531e2cc482c1fcd50f75b2ef9a3d7e364736f6c63430008090033",
  "linkReferences": {},
  "deployedLinkReferences": {}
}