{
  "_format": "hh-sol-artifact-1",
  "contractName": "ArtabiaERC1155",
  "sourceName": "contracts/tokens/ArtabiaERC1155.sol",
  "abi": [
    {
      "inputs": [
        {
          "internalType": "address[]",
          "name": "marketplaceAddresses",
          "type": "address[]"
        }
      ],
      "stateMutability": "nonpayable",
      "type": "constructor"
    },
    {
      "anonymous": false,
      "inputs": [
        {
          "indexed": true,
          "internalType": "address",
          "name": "account",
          "type": "address"
        },
        {
          "indexed": true,
          "internalType": "address",
          "name": "operator",
          "type": "address"
        },
        {
          "indexed": false,
          "internalType": "bool",
          "name": "approved",
          "type": "bool"
        }
      ],
      "name": "ApprovalForAll",
      "type": "event"
    },
    {
      "anonymous": false,
      "inputs": [
        {
          "indexed": true,
          "internalType": "bytes32",
          "name": "id",
          "type": "bytes32"
        },
        {
          "indexed": true,
          "internalType": "address",
          "name": "addr",
          "type": "address"
        }
      ],
      "name": "MarketplaceOrderCreated",
      "type": "event"
    },
    {
      "anonymous": false,
      "inputs": [
        {
          "indexed": true,
          "internalType": "address",
          "name": "operator",
          "type": "address"
        },
        {
          "indexed": true,
          "internalType": "address",
          "name": "from",
          "type": "address"
        },
        {
          "indexed": true,
          "internalType": "address",
          "name": "to",
          "type": "address"
        },
        {
          "indexed": false,
          "internalType": "uint256[]",
          "name": "ids",
          "type": "uint256[]"
        },
        {
          "indexed": false,
          "internalType": "uint256[]",
          "name": "values",
          "type": "uint256[]"
        }
      ],
      "name": "TransferBatch",
      "type": "event"
    },
    {
      "anonymous": false,
      "inputs": [
        {
          "indexed": true,
          "internalType": "address",
          "name": "operator",
          "type": "address"
        },
        {
          "indexed": true,
          "internalType": "address",
          "name": "from",
          "type": "address"
        },
        {
          "indexed": true,
          "internalType": "address",
          "name": "to",
          "type": "address"
        },
        {
          "indexed": false,
          "internalType": "uint256",
          "name": "id",
          "type": "uint256"
        },
        {
          "indexed": false,
          "internalType": "uint256",
          "name": "value",
          "type": "uint256"
        }
      ],
      "name": "TransferSingle",
      "type": "event"
    },
    {
      "anonymous": false,
      "inputs": [
        {
          "indexed": false,
          "internalType": "string",
          "name": "value",
          "type": "string"
        },
        {
          "indexed": true,
          "internalType": "uint256",
          "name": "id",
          "type": "uint256"
        }
      ],
      "name": "URI",
      "type": "event"
    },
    {
      "inputs": [
        {
          "internalType": "address",
          "name": "account",
          "type": "address"
        },
        {
          "internalType": "uint256",
          "name": "id",
          "type": "uint256"
        }
      ],
      "name": "balanceOf",
      "outputs": [
        {
          "internalType": "uint256",
          "name": "",
          "type": "uint256"
        }
      ],
      "stateMutability": "view",
      "type": "function"
    },
    {
      "inputs": [
        {
          "internalType": "address[]",
          "name": "accounts",
          "type": "address[]"
        },
        {
          "internalType": "uint256[]",
          "name": "ids",
          "type": "uint256[]"
        }
      ],
      "name": "balanceOfBatch",
      "outputs": [
        {
          "internalType": "uint256[]",
          "name": "",
          "type": "uint256[]"
        }
      ],
      "stateMutability": "view",
      "type": "function"
    },
    {
      "inputs": [
        {
          "internalType": "address",
          "name": "owner",
          "type": "address"
        },
        {
          "internalType": "address",
          "name": "operator",
          "type": "address"
        }
      ],
      "name": "isApprovedForAll",
      "outputs": [
        {
          "internalType": "bool",
          "name": "",
          "type": "bool"
        }
      ],
      "stateMutability": "view",
      "type": "function"
    },
    {
      "inputs": [
        {
          "internalType": "uint256",
          "name": "_tokenId",
          "type": "uint256"
        },
        {
          "internalType": "uint256",
          "name": "_tokenQty",
          "type": "uint256"
        },
        {
          "internalType": "uint8",
          "name": "_royaltyPercentage",
          "type": "uint8"
        }
      ],
      "name": "mint",
      "outputs": [],
      "stateMutability": "nonpayable",
      "type": "function"
    },
    {
      "inputs": [
        {
          "internalType": "uint256",
          "name": "_tokenId",
          "type": "uint256"
        },
        {
          "internalType": "uint256",
          "name": "_tokenQty",
          "type": "uint256"
        },
        {
          "internalType": "uint256",
          "name": "_tokenQtyToList",
          "type": "uint256"
        },
        {
          "internalType": "uint8",
          "name": "_royaltyPercentage",
          "type": "uint8"
        },
        {
          "internalType": "uint128",
          "name": "_endsAt",
          "type": "uint128"
        }
      ],
      "name": "mintAndCreateAuction",
      "outputs": [
        {
          "internalType": "bytes32",
          "name": "",
          "type": "bytes32"
        }
      ],
      "stateMutability": "nonpayable",
      "type": "function"
    },
    {
      "inputs": [
        {
          "internalType": "uint256",
          "name": "_tokenId",
          "type": "uint256"
        },
        {
          "internalType": "uint256",
          "name": "_tokenQty",
          "type": "uint256"
        },
        {
          "internalType": "uint256",
          "name": "_tokenQtyToList",
          "type": "uint256"
        },
        {
          "internalType": "uint8",
          "name": "_royaltyPercentage",
          "type": "uint8"
        }
      ],
      "name": "mintAndCreateListing",
      "outputs": [
        {
          "internalType": "bytes32",
          "name": "",
          "type": "bytes32"
        }
      ],
      "stateMutability": "nonpayable",
      "type": "function"
    },
    {
      "inputs": [
        {
          "internalType": "uint256",
          "name": "_tokenId",
          "type": "uint256"
        },
        {
          "internalType": "uint256",
          "name": "_tokenQty",
          "type": "uint256"
        },
        {
          "internalType": "uint256",
          "name": "_tokenQtyToList",
          "type": "uint256"
        },
        {
          "internalType": "uint8",
          "name": "_royaltyPercentage",
          "type": "uint8"
        },
        {
          "internalType": "uint256",
          "name": "_price",
          "type": "uint256"
        }
      ],
      "name": "mintAndCreateOrder",
      "outputs": [
        {
          "internalType": "bytes32",
          "name": "",
          "type": "bytes32"
        }
      ],
      "stateMutability": "nonpayable",
      "type": "function"
    },
    {
      "inputs": [
        {
          "internalType": "uint256",
          "name": "_tokenId",
          "type": "uint256"
        },
        {
          "internalType": "uint256",
          "name": "_salePrice",
          "type": "uint256"
        }
      ],
      "name": "royaltyInfo",
      "outputs": [
        {
          "internalType": "address",
          "name": "receiver",
          "type": "address"
        },
        {
          "internalType": "uint256",
          "name": "royaltyAmount",
          "type": "uint256"
        }
      ],
      "stateMutability": "view",
      "type": "function"
    },
    {
      "inputs": [
        {
          "internalType": "address",
          "name": "from",
          "type": "address"
        },
        {
          "internalType": "address",
          "name": "to",
          "type": "address"
        },
        {
          "internalType": "uint256[]",
          "name": "ids",
          "type": "uint256[]"
        },
        {
          "internalType": "uint256[]",
          "name": "amounts",
          "type": "uint256[]"
        },
        {
          "internalType": "bytes",
          "name": "data",
          "type": "bytes"
        }
      ],
      "name": "safeBatchTransferFrom",
      "outputs": [],
      "stateMutability": "nonpayable",
      "type": "function"
    },
    {
      "inputs": [
        {
          "internalType": "address",
          "name": "from",
          "type": "address"
        },
        {
          "internalType": "address",
          "name": "to",
          "type": "address"
        },
        {
          "internalType": "uint256",
          "name": "id",
          "type": "uint256"
        },
        {
          "internalType": "uint256",
          "name": "amount",
          "type": "uint256"
        },
        {
          "internalType": "bytes",
          "name": "data",
          "type": "bytes"
        }
      ],
      "name": "safeTransferFrom",
      "outputs": [],
      "stateMutability": "nonpayable",
      "type": "function"
    },
    {
      "inputs": [
        {
          "internalType": "address",
          "name": "operator",
          "type": "address"
        },
        {
          "internalType": "bool",
          "name": "approved",
          "type": "bool"
        }
      ],
      "name": "setApprovalForAll",
      "outputs": [],
      "stateMutability": "nonpayable",
      "type": "function"
    },
    {
      "inputs": [
        {
          "internalType": "bytes4",
          "name": "interfaceId",
          "type": "bytes4"
        }
      ],
      "name": "supportsInterface",
      "outputs": [
        {
          "internalType": "bool",
          "name": "",
          "type": "bool"
        }
      ],
      "stateMutability": "view",
      "type": "function"
    },
    {
      "inputs": [
        {
          "internalType": "uint256",
          "name": "",
          "type": "uint256"
        }
      ],
      "name": "uri",
      "outputs": [
        {
          "internalType": "string",
          "name": "",
          "type": "string"
        }
      ],
      "stateMutability": "view",
      "type": "function"
    }
  ],
  "bytecode": "0x60806040523480156200001157600080fd5b5060405162001f4338038062001f43833981016040819052620000349162000293565b60405180606001604052806028815260200162001f1b6028913981816200005b81620001a1565b5060005b8151811015620000cb5760016003600084848151811062000084576200008462000365565b6020908102919091018101516001600160a01b03168252810191909152604001600020805460ff191691151591909117905580620000c2816200037b565b9150506200005f565b50505080600081518110620000e457620000e462000365565b6020026020010151600760006101000a8154816001600160a01b0302191690836001600160a01b031602179055508060018151811062000128576200012862000365565b6020026020010151600860006101000a8154816001600160a01b0302191690836001600160a01b03160217905550806002815181106200016c576200016c62000365565b6020026020010151600960006101000a8154816001600160a01b0302191690836001600160a01b0316021790555050620003e2565b8051620001b6906002906020840190620001ba565b5050565b828054620001c890620003a5565b90600052602060002090601f016020900481019282620001ec576000855562000237565b82601f106200020757805160ff191683800117855562000237565b8280016001018555821562000237579182015b82811115620002375782518255916020019190600101906200021a565b506200024592915062000249565b5090565b5b808211156200024557600081556001016200024a565b634e487b7160e01b600052604160045260246000fd5b80516001600160a01b03811681146200028e57600080fd5b919050565b60006020808385031215620002a757600080fd5b82516001600160401b0380821115620002bf57600080fd5b818501915085601f830112620002d457600080fd5b815181811115620002e957620002e962000260565b8060051b604051601f19603f8301168101818110858211171562000311576200031162000260565b6040529182528482019250838101850191888311156200033057600080fd5b938501935b828510156200035957620003498562000276565b8452938501939285019262000335565b98975050505050505050565b634e487b7160e01b600052603260045260246000fd5b60006000198214156200039e57634e487b7160e01b600052601160045260246000fd5b5060010190565b600181811c90821680620003ba57607f821691505b60208210811415620003dc57634e487b7160e01b600052602260045260246000fd5b50919050565b611b2980620003f26000396000f3fe608060405234801561001057600080fd5b50600436106100ce5760003560e01c80632fc8d6e71161008c578063a22cb46511610066578063a22cb465146101dc578063aa5fe181146101ef578063e985e9c514610202578063f242432a1461021557600080fd5b80632fc8d6e7146101965780634e1273f4146101a95780638b6a97be146101c957600080fd5b8062fdd58e146100d357806301ffc9a7146100f957806305b6cb4f1461011c5780630e89341c146101315780632a55205a146101515780632eb2c2d614610183575b600080fd5b6100e66100e136600461115e565b610228565b6040519081526020015b60405180910390f35b61010c6101073660046111a1565b6102bf565b60405190151581526020016100f0565b61012f61012a3660046111cf565b6102ea565b005b61014461013f366004611204565b6103b8565b6040516100f0919061126a565b61016461015f36600461127d565b61044c565b604080516001600160a01b0390931683526020830191909152016100f0565b61012f6101913660046113eb565b610497565b6100e66101a4366004611495565b61052e565b6101bc6101b73660046114dc565b610628565b6040516100f091906115e2565b6100e66101d73660046115f5565b610752565b61012f6101ea366004611655565b6107cc565b6100e66101fd366004611691565b6108a3565b61010c6102103660046116d0565b610994565b61012f610223366004611703565b6109e7565b60006001600160a01b0383166102995760405162461bcd60e51b815260206004820152602b60248201527f455243313135353a2062616c616e636520717565727920666f7220746865207a60448201526a65726f206164647265737360a81b60648201526084015b60405180910390fd5b506000908152602081815260408083206001600160a01b03949094168352929052205490565b60006001600160e01b0319821663152a902d60e11b14806102e457506102e482610a6e565b92915050565b333b156103095760405162461bcd60e51b815260040161029090611768565b60328160ff16111561035d5760405162461bcd60e51b815260206004820152601a60248201527f726f79616c74792070657263656e7461676520746f6f206269670000000000006044820152606401610290565b61037833848460405180602001604052806000815250610abe565b600092835260056020908152604080852080546001600160a01b031916331790556006909152909220805460ff90931660ff199093169290921790915550565b6060600280546103c790611794565b80601f01602080910402602001604051908101604052809291908181526020018280546103f390611794565b80156104405780601f1061041557610100808354040283529160200191610440565b820191906000526020600020905b81548152906001019060200180831161042357829003601f168201915b50505050509050919050565b600082815260056020908152604080832054600690925282205482916001600160a01b0316906064906104829060ff16866117e5565b61048c9190611804565b915091509250929050565b6001600160a01b0385163314806104b357506104b38533610994565b61051a5760405162461bcd60e51b815260206004820152603260248201527f455243313135353a207472616e736665722063616c6c6572206973206e6f74206044820152711bdddb995c881b9bdc88185c1c1c9bdd995960721b6064820152608401610290565b6105278585858585610bc8565b5050505050565b6000333b1561054f5760405162461bcd60e51b815260040161029090611768565b61055a8686856102ea565b6007546040516337b2970d60e11b81523060048201526024810188905260448101869052606481018490526000916001600160a01b031690636f652e1a906084015b602060405180830381600087803b1580156105b657600080fd5b505af11580156105ca573d6000803e3d6000fd5b505050506040513d601f19601f820116820180604052508101906105ee9190611826565b604051909150339082907f0d9a2d7584cbc35d52a709eb74f6f43817fcca90fb0190256f13409bff4fd44690600090a39695505050505050565b6060815183511461068d5760405162461bcd60e51b815260206004820152602960248201527f455243313135353a206163636f756e747320616e6420696473206c656e677468604482015268040dad2e6dac2e8c6d60bb1b6064820152608401610290565b6000835167ffffffffffffffff8111156106a9576106a961129f565b6040519080825280602002602001820160405280156106d2578160200160208202803683370190505b50905060005b845181101561074a5761071d8582815181106106f6576106f661183f565b60200260200101518583815181106107105761071061183f565b6020026020010151610228565b82828151811061072f5761072f61183f565b602090810291909101015261074381611855565b90506106d8565b509392505050565b6000333b156107735760405162461bcd60e51b815260040161029090611768565b61077e8686856102ea565b60095460405163a65662b360e01b815230600482015260248101889052604481018690526001600160801b03841660648201526000916001600160a01b03169063a65662b39060840161059c565b6001600160a01b0382163314156108375760405162461bcd60e51b815260206004820152602960248201527f455243313135353a2073657474696e6720617070726f76616c20737461747573604482015268103337b91039b2b63360b91b6064820152608401610290565b3360008181526004602090815260408083206001600160a01b03871680855290835292819020805460ff191686151590811790915590519081529192917f17307eab39ab6107e8899845ad3d59bd9653f200f220920489ca2b5937696c31910160405180910390a35050565b6000333b156108c45760405162461bcd60e51b815260040161029090611768565b6108cf8585846102ea565b60085460405163123c062b60e11b815230600482015260248101879052604481018590526000916001600160a01b0316906324780c5690606401602060405180830381600087803b15801561092357600080fd5b505af1158015610937573d6000803e3d6000fd5b505050506040513d601f19601f8201168201806040525081019061095b9190611826565b604051909150339082907f0d9a2d7584cbc35d52a709eb74f6f43817fcca90fb0190256f13409bff4fd44690600090a395945050505050565b6001600160a01b03811660009081526003602052604081205460ff16806109e057506001600160a01b0380841660009081526004602090815260408083209386168352929052205460ff165b9392505050565b6001600160a01b038516331480610a035750610a038533610994565b610a615760405162461bcd60e51b815260206004820152602960248201527f455243313135353a2063616c6c6572206973206e6f74206f776e6572206e6f7260448201526808185c1c1c9bdd995960ba1b6064820152608401610290565b6105278585858585610da5565b60006001600160e01b03198216636cdb3d1360e11b1480610a9f57506001600160e01b031982166303a24d0760e21b145b806102e457506301ffc9a760e01b6001600160e01b03198316146102e4565b6001600160a01b038416610b1e5760405162461bcd60e51b815260206004820152602160248201527f455243313135353a206d696e7420746f20746865207a65726f206164647265736044820152607360f81b6064820152608401610290565b33610b3881600087610b2f88610ec2565b61052788610ec2565b6000848152602081815260408083206001600160a01b038916845290915281208054859290610b68908490611870565b909155505060408051858152602081018590526001600160a01b0380881692600092918516917fc3d58168c5ae7397731d063d5bbf3d657854427343f4c083240f7aacaa2d0f62910160405180910390a461052781600087878787610f0d565b8151835114610c2a5760405162461bcd60e51b815260206004820152602860248201527f455243313135353a2069647320616e6420616d6f756e7473206c656e677468206044820152670dad2e6dac2e8c6d60c31b6064820152608401610290565b6001600160a01b038416610c505760405162461bcd60e51b815260040161029090611888565b3360005b8451811015610d37576000858281518110610c7157610c7161183f565b602002602001015190506000858381518110610c8f57610c8f61183f565b602090810291909101810151600084815280835260408082206001600160a01b038e168352909352919091205490915081811015610cdf5760405162461bcd60e51b8152600401610290906118cd565b6000838152602081815260408083206001600160a01b038e8116855292528083208585039055908b16825281208054849290610d1c908490611870565b9250508190555050505080610d3090611855565b9050610c54565b50846001600160a01b0316866001600160a01b0316826001600160a01b03167f4a39dc06d4c0dbc64b70af90fd698a233a518aa5d07e595d983b8c0526c8f7fb8787604051610d87929190611917565b60405180910390a4610d9d818787878787611078565b505050505050565b6001600160a01b038416610dcb5760405162461bcd60e51b815260040161029090611888565b33610ddb818787610b2f88610ec2565b6000848152602081815260408083206001600160a01b038a16845290915290205483811015610e1c5760405162461bcd60e51b8152600401610290906118cd565b6000858152602081815260408083206001600160a01b038b8116855292528083208785039055908816825281208054869290610e59908490611870565b909155505060408051868152602081018690526001600160a01b03808916928a821692918616917fc3d58168c5ae7397731d063d5bbf3d657854427343f4c083240f7aacaa2d0f62910160405180910390a4610eb9828888888888610f0d565b50505050505050565b60408051600180825281830190925260609160009190602080830190803683370190505090508281600081518110610efc57610efc61183f565b602090810291909101015292915050565b6001600160a01b0384163b15610d9d5760405163f23a6e6160e01b81526001600160a01b0385169063f23a6e6190610f519089908990889088908890600401611945565b602060405180830381600087803b158015610f6b57600080fd5b505af1925050508015610f9b575060408051601f3d908101601f19168201909252610f989181019061198a565b60015b61104857610fa76119a7565b806308c379a01415610fe15750610fbc6119c3565b80610fc75750610fe3565b8060405162461bcd60e51b8152600401610290919061126a565b505b60405162461bcd60e51b815260206004820152603460248201527f455243313135353a207472616e7366657220746f206e6f6e20455243313135356044820152732932b1b2b4bb32b91034b6b83632b6b2b73a32b960611b6064820152608401610290565b6001600160e01b0319811663f23a6e6160e01b14610eb95760405162461bcd60e51b815260040161029090611a4d565b6001600160a01b0384163b15610d9d5760405163bc197c8160e01b81526001600160a01b0385169063bc197c81906110bc9089908990889088908890600401611a95565b602060405180830381600087803b1580156110d657600080fd5b505af1925050508015611106575060408051601f3d908101601f191682019092526111039181019061198a565b60015b61111257610fa76119a7565b6001600160e01b0319811663bc197c8160e01b14610eb95760405162461bcd60e51b815260040161029090611a4d565b80356001600160a01b038116811461115957600080fd5b919050565b6000806040838503121561117157600080fd5b61117a83611142565b946020939093013593505050565b6001600160e01b03198116811461119e57600080fd5b50565b6000602082840312156111b357600080fd5b81356109e081611188565b803560ff8116811461115957600080fd5b6000806000606084860312156111e457600080fd5b83359250602084013591506111fb604085016111be565b90509250925092565b60006020828403121561121657600080fd5b5035919050565b6000815180845260005b8181101561124357602081850181015186830182015201611227565b81811115611255576000602083870101525b50601f01601f19169290920160200192915050565b6020815260006109e0602083018461121d565b6000806040838503121561129057600080fd5b50508035926020909101359150565b634e487b7160e01b600052604160045260246000fd5b601f8201601f1916810167ffffffffffffffff811182821017156112db576112db61129f565b6040525050565b600067ffffffffffffffff8211156112fc576112fc61129f565b5060051b60200190565b600082601f83011261131757600080fd5b81356020611324826112e2565b60405161133182826112b5565b83815260059390931b850182019282810191508684111561135157600080fd5b8286015b8481101561136c5780358352918301918301611355565b509695505050505050565b600082601f83011261138857600080fd5b813567ffffffffffffffff8111156113a2576113a261129f565b6040516113b9601f8301601f1916602001826112b5565b8181528460208386010111156113ce57600080fd5b816020850160208301376000918101602001919091529392505050565b600080600080600060a0868803121561140357600080fd5b61140c86611142565b945061141a60208701611142565b9350604086013567ffffffffffffffff8082111561143757600080fd5b61144389838a01611306565b9450606088013591508082111561145957600080fd5b61146589838a01611306565b9350608088013591508082111561147b57600080fd5b5061148888828901611377565b9150509295509295909350565b600080600080600060a086880312156114ad57600080fd5b8535945060208601359350604086013592506114cb606087016111be565b949793965091946080013592915050565b600080604083850312156114ef57600080fd5b823567ffffffffffffffff8082111561150757600080fd5b818501915085601f83011261151b57600080fd5b81356020611528826112e2565b60405161153582826112b5565b83815260059390931b850182019282810191508984111561155557600080fd5b948201945b8386101561157a5761156b86611142565b8252948201949082019061155a565b9650508601359250508082111561159057600080fd5b5061159d85828601611306565b9150509250929050565b600081518084526020808501945080840160005b838110156115d7578151875295820195908201906001016115bb565b509495945050505050565b6020815260006109e060208301846115a7565b600080600080600060a0868803121561160d57600080fd5b85359450602086013593506040860135925061162b606087016111be565b915060808601356001600160801b038116811461164757600080fd5b809150509295509295909350565b6000806040838503121561166857600080fd5b61167183611142565b91506020830135801515811461168657600080fd5b809150509250929050565b600080600080608085870312156116a757600080fd5b8435935060208501359250604085013591506116c5606086016111be565b905092959194509250565b600080604083850312156116e357600080fd5b6116ec83611142565b91506116fa60208401611142565b90509250929050565b600080600080600060a0868803121561171b57600080fd5b61172486611142565b945061173260208701611142565b93506040860135925060608601359150608086013567ffffffffffffffff81111561175c57600080fd5b61148888828901611377565b6020808252601290820152716f6e6c79206e6f6e20636f6e74726163747360701b604082015260600190565b600181811c908216806117a857607f821691505b602082108114156117c957634e487b7160e01b600052602260045260246000fd5b50919050565b634e487b7160e01b600052601160045260246000fd5b60008160001904831182151516156117ff576117ff6117cf565b500290565b60008261182157634e487b7160e01b600052601260045260246000fd5b500490565b60006020828403121561183857600080fd5b5051919050565b634e487b7160e01b600052603260045260246000fd5b6000600019821415611869576118696117cf565b5060010190565b60008219821115611883576118836117cf565b500190565b60208082526025908201527f455243313135353a207472616e7366657220746f20746865207a65726f206164604082015264647265737360d81b606082015260800190565b6020808252602a908201527f455243313135353a20696e73756666696369656e742062616c616e636520666f60408201526939103a3930b739b332b960b11b606082015260800190565b60408152600061192a60408301856115a7565b828103602084015261193c81856115a7565b95945050505050565b6001600160a01b03868116825285166020820152604081018490526060810183905260a06080820181905260009061197f9083018461121d565b979650505050505050565b60006020828403121561199c57600080fd5b81516109e081611188565b600060033d11156119c05760046000803e5060005160e01c5b90565b600060443d10156119d15790565b6040516003193d81016004833e81513d67ffffffffffffffff8160248401118184111715611a0157505050505090565b8285019150815181811115611a195750505050505090565b843d8701016020828501011115611a335750505050505090565b611a42602082860101876112b5565b509095945050505050565b60208082526028908201527f455243313135353a204552433131353552656365697665722072656a656374656040820152676420746f6b656e7360c01b606082015260800190565b6001600160a01b0386811682528516602082015260a060408201819052600090611ac1908301866115a7565b8281036060840152611ad381866115a7565b90508281036080840152611ae7818561121d565b9897505050505050505056fea26469706673582212208b2054869691c5d4c498742ff0372f475006b3f823dc38bfe9cbacee8eac553564736f6c63430008090033687474703a2f2f6c6f63616c686f73743a333030302f6d657461646174612f7b69647d2e6a736f6e",
  "linkReferences": {},
  "deployedLinkReferences": {}
}