{
  "_format": "hh-sol-artifact-1",
  "contractName": "ArtabiaERC721",
  "sourceName": "contracts/tokens/ArtabiaERC721.sol",
  "abi": [
    {
      "inputs": [
        {
          "internalType": "address[]",
          "name": "marketplaceAddresses",
          "type": "address[]"
        }
      ],
      "stateMutability": "nonpayable",
      "type": "constructor"
    },
    {
      "anonymous": false,
      "inputs": [
        {
          "indexed": true,
          "internalType": "address",
          "name": "owner",
          "type": "address"
        },
        {
          "indexed": true,
          "internalType": "address",
          "name": "approved",
          "type": "address"
        },
        {
          "indexed": true,
          "internalType": "uint256",
          "name": "tokenId",
          "type": "uint256"
        }
      ],
      "name": "Approval",
      "type": "event"
    },
    {
      "anonymous": false,
      "inputs": [
        {
          "indexed": true,
          "internalType": "address",
          "name": "owner",
          "type": "address"
        },
        {
          "indexed": true,
          "internalType": "address",
          "name": "operator",
          "type": "address"
        },
        {
          "indexed": false,
          "internalType": "bool",
          "name": "approved",
          "type": "bool"
        }
      ],
      "name": "ApprovalForAll",
      "type": "event"
    },
    {
      "anonymous": false,
      "inputs": [
        {
          "indexed": true,
          "internalType": "bytes32",
          "name": "id",
          "type": "bytes32"
        },
        {
          "indexed": true,
          "internalType": "address",
          "name": "addr",
          "type": "address"
        }
      ],
      "name": "MarketplaceOrderCreated",
      "type": "event"
    },
    {
      "anonymous": false,
      "inputs": [
        {
          "indexed": true,
          "internalType": "address",
          "name": "from",
          "type": "address"
        },
        {
          "indexed": true,
          "internalType": "address",
          "name": "to",
          "type": "address"
        },
        {
          "indexed": true,
          "internalType": "uint256",
          "name": "tokenId",
          "type": "uint256"
        }
      ],
      "name": "Transfer",
      "type": "event"
    },
    {
      "inputs": [
        {
          "internalType": "address",
          "name": "to",
          "type": "address"
        },
        {
          "internalType": "uint256",
          "name": "tokenId",
          "type": "uint256"
        }
      ],
      "name": "approve",
      "outputs": [],
      "stateMutability": "nonpayable",
      "type": "function"
    },
    {
      "inputs": [
        {
          "internalType": "address",
          "name": "owner",
          "type": "address"
        }
      ],
      "name": "balanceOf",
      "outputs": [
        {
          "internalType": "uint256",
          "name": "",
          "type": "uint256"
        }
      ],
      "stateMutability": "view",
      "type": "function"
    },
    {
      "inputs": [
        {
          "internalType": "uint256",
          "name": "tokenId",
          "type": "uint256"
        }
      ],
      "name": "getApproved",
      "outputs": [
        {
          "internalType": "address",
          "name": "",
          "type": "address"
        }
      ],
      "stateMutability": "view",
      "type": "function"
    },
    {
      "inputs": [
        {
          "internalType": "address",
          "name": "owner",
          "type": "address"
        },
        {
          "internalType": "address",
          "name": "operator",
          "type": "address"
        }
      ],
      "name": "isApprovedForAll",
      "outputs": [
        {
          "internalType": "bool",
          "name": "",
          "type": "bool"
        }
      ],
      "stateMutability": "view",
      "type": "function"
    },
    {
      "inputs": [
        {
          "internalType": "uint256",
          "name": "_tokenId",
          "type": "uint256"
        },
        {
          "internalType": "uint8",
          "name": "_royaltyPercentage",
          "type": "uint8"
        }
      ],
      "name": "mint",
      "outputs": [],
      "stateMutability": "nonpayable",
      "type": "function"
    },
    {
      "inputs": [
        {
          "internalType": "uint256",
          "name": "_tokenId",
          "type": "uint256"
        },
        {
          "internalType": "uint8",
          "name": "_royaltyPercentage",
          "type": "uint8"
        },
        {
          "internalType": "uint128",
          "name": "_endsAt",
          "type": "uint128"
        }
      ],
      "name": "mintAndCreateAuction",
      "outputs": [
        {
          "internalType": "bytes32",
          "name": "",
          "type": "bytes32"
        }
      ],
      "stateMutability": "nonpayable",
      "type": "function"
    },
    {
      "inputs": [
        {
          "internalType": "uint256",
          "name": "_tokenId",
          "type": "uint256"
        },
        {
          "internalType": "uint8",
          "name": "_royaltyPercentage",
          "type": "uint8"
        }
      ],
      "name": "mintAndCreateListing",
      "outputs": [
        {
          "internalType": "bytes32",
          "name": "",
          "type": "bytes32"
        }
      ],
      "stateMutability": "nonpayable",
      "type": "function"
    },
    {
      "inputs": [
        {
          "internalType": "uint256",
          "name": "_tokenId",
          "type": "uint256"
        },
        {
          "internalType": "uint8",
          "name": "_royaltyPercentage",
          "type": "uint8"
        },
        {
          "internalType": "uint256",
          "name": "_price",
          "type": "uint256"
        }
      ],
      "name": "mintAndCreateOrder",
      "outputs": [
        {
          "internalType": "bytes32",
          "name": "",
          "type": "bytes32"
        }
      ],
      "stateMutability": "nonpayable",
      "type": "function"
    },
    {
      "inputs": [],
      "name": "name",
      "outputs": [
        {
          "internalType": "string",
          "name": "",
          "type": "string"
        }
      ],
      "stateMutability": "view",
      "type": "function"
    },
    {
      "inputs": [
        {
          "internalType": "uint256",
          "name": "tokenId",
          "type": "uint256"
        }
      ],
      "name": "ownerOf",
      "outputs": [
        {
          "internalType": "address",
          "name": "",
          "type": "address"
        }
      ],
      "stateMutability": "view",
      "type": "function"
    },
    {
      "inputs": [
        {
          "internalType": "uint256",
          "name": "_tokenId",
          "type": "uint256"
        },
        {
          "internalType": "uint256",
          "name": "_salePrice",
          "type": "uint256"
        }
      ],
      "name": "royaltyInfo",
      "outputs": [
        {
          "internalType": "address",
          "name": "receiver",
          "type": "address"
        },
        {
          "internalType": "uint256",
          "name": "royaltyAmount",
          "type": "uint256"
        }
      ],
      "stateMutability": "view",
      "type": "function"
    },
    {
      "inputs": [
        {
          "internalType": "address",
          "name": "from",
          "type": "address"
        },
        {
          "internalType": "address",
          "name": "to",
          "type": "address"
        },
        {
          "internalType": "uint256",
          "name": "tokenId",
          "type": "uint256"
        }
      ],
      "name": "safeTransferFrom",
      "outputs": [],
      "stateMutability": "nonpayable",
      "type": "function"
    },
    {
      "inputs": [
        {
          "internalType": "address",
          "name": "from",
          "type": "address"
        },
        {
          "internalType": "address",
          "name": "to",
          "type": "address"
        },
        {
          "internalType": "uint256",
          "name": "tokenId",
          "type": "uint256"
        },
        {
          "internalType": "bytes",
          "name": "_data",
          "type": "bytes"
        }
      ],
      "name": "safeTransferFrom",
      "outputs": [],
      "stateMutability": "nonpayable",
      "type": "function"
    },
    {
      "inputs": [
        {
          "internalType": "address",
          "name": "operator",
          "type": "address"
        },
        {
          "internalType": "bool",
          "name": "approved",
          "type": "bool"
        }
      ],
      "name": "setApprovalForAll",
      "outputs": [],
      "stateMutability": "nonpayable",
      "type": "function"
    },
    {
      "inputs": [
        {
          "internalType": "bytes4",
          "name": "interfaceId",
          "type": "bytes4"
        }
      ],
      "name": "supportsInterface",
      "outputs": [
        {
          "internalType": "bool",
          "name": "",
          "type": "bool"
        }
      ],
      "stateMutability": "view",
      "type": "function"
    },
    {
      "inputs": [],
      "name": "symbol",
      "outputs": [
        {
          "internalType": "string",
          "name": "",
          "type": "string"
        }
      ],
      "stateMutability": "view",
      "type": "function"
    },
    {
      "inputs": [
        {
          "internalType": "uint256",
          "name": "_tokenId",
          "type": "uint256"
        }
      ],
      "name": "tokenURI",
      "outputs": [
        {
          "internalType": "string",
          "name": "",
          "type": "string"
        }
      ],
      "stateMutability": "view",
      "type": "function"
    },
    {
      "inputs": [
        {
          "internalType": "address",
          "name": "from",
          "type": "address"
        },
        {
          "internalType": "address",
          "name": "to",
          "type": "address"
        },
        {
          "internalType": "uint256",
          "name": "tokenId",
          "type": "uint256"
        }
      ],
      "name": "transferFrom",
      "outputs": [],
      "stateMutability": "nonpayable",
      "type": "function"
    }
  ],
  "bytecode": "0x60806040523480156200001157600080fd5b5060405162001d2738038062001d278339810160408190526200003491620002c3565b604051806040016040528060078152602001664172746162696160c81b8152506040518060400160405280600381526020016220a92160e91b81525082828281600090805190602001906200008b929190620001ea565b508051620000a1906001906020840190620001ea565b50505060005b81518110156200011357600160066000848481518110620000cc57620000cc62000395565b6020908102919091018101516001600160a01b03168252810191909152604001600020805460ff1916911515919091179055806200010a81620003ab565b915050620000a7565b50505050806000815181106200012d576200012d62000395565b6020026020010151600860006101000a8154816001600160a01b0302191690836001600160a01b031602179055508060018151811062000171576200017162000395565b6020026020010151600960006101000a8154816001600160a01b0302191690836001600160a01b0316021790555080600281518110620001b557620001b562000395565b6020026020010151600a60006101000a8154816001600160a01b0302191690836001600160a01b031602179055505062000412565b828054620001f890620003d5565b90600052602060002090601f0160209004810192826200021c576000855562000267565b82601f106200023757805160ff191683800117855562000267565b8280016001018555821562000267579182015b82811115620002675782518255916020019190600101906200024a565b506200027592915062000279565b5090565b5b808211156200027557600081556001016200027a565b634e487b7160e01b600052604160045260246000fd5b80516001600160a01b0381168114620002be57600080fd5b919050565b60006020808385031215620002d757600080fd5b82516001600160401b0380821115620002ef57600080fd5b818501915085601f8301126200030457600080fd5b81518181111562000319576200031962000290565b8060051b604051601f19603f8301168101818110858211171562000341576200034162000290565b6040529182528482019250838101850191888311156200036057600080fd5b938501935b8285101562000389576200037985620002a6565b8452938501939285019262000365565b98975050505050505050565b634e487b7160e01b600052603260045260246000fd5b6000600019821415620003ce57634e487b7160e01b600052601160045260246000fd5b5060010190565b600181811c90821680620003ea57607f821691505b602082108114156200040c57634e487b7160e01b600052602260045260246000fd5b50919050565b61190580620004226000396000f3fe608060405234801561001057600080fd5b50600436106101165760003560e01c806370a08231116100a2578063c23ee64511610071578063c23ee64514610265578063c87b56dd14610278578063cdf9c33f1461028b578063e985e9c51461029e578063fb2f1ffb146102b157600080fd5b806370a082311461022457806395d89b4114610237578063a22cb4651461023f578063b88d4fde1461025257600080fd5b806323b872dd116100e957806323b872dd146101985780632a55205a146101ab5780633e4dc8a6146101dd57806342842e0e146101fe5780636352211e1461021157600080fd5b806301ffc9a71461011b57806306fdde0314610143578063081812fc14610158578063095ea7b314610183575b600080fd5b61012e6101293660046112da565b6102c4565b60405190151581526020015b60405180910390f35b61014b6102ef565b60405161013a919061134f565b61016b610166366004611362565b610381565b6040516001600160a01b03909116815260200161013a565b610196610191366004611397565b61041b565b005b6101966101a63660046113c1565b610531565b6101be6101b93660046113fd565b610562565b604080516001600160a01b03909316835260208301919091520161013a565b6101f06101eb366004611430565b6105ad565b60405190815260200161013a565b61019661020c3660046113c1565b6106a5565b61016b61021f366004611362565b6106c0565b6101f061023236600461147c565b610737565b61014b6107be565b61019661024d366004611497565b6107cd565b6101966102603660046114e9565b610892565b6101f06102733660046115c5565b6108ca565b61014b610286366004611362565b610934565b6101f06102993660046115ea565b610a17565b61012e6102ac366004611616565b610afe565b6101966102bf3660046115ea565b610b51565b60006001600160e01b0319821663152a902d60e11b14806102e957506102e982610c0c565b92915050565b6060600080546102fe90611640565b80601f016020809104026020016040519081016040528092919081815260200182805461032a90611640565b80156103775780601f1061034c57610100808354040283529160200191610377565b820191906000526020600020905b81548152906001019060200180831161035a57829003601f168201915b5050505050905090565b6000818152600260205260408120546001600160a01b03166103ff5760405162461bcd60e51b815260206004820152602c60248201527f4552433732313a20617070726f76656420717565727920666f72206e6f6e657860448201526b34b9ba32b73a103a37b5b2b760a11b60648201526084015b60405180910390fd5b506000908152600460205260409020546001600160a01b031690565b6000610426826106c0565b9050806001600160a01b0316836001600160a01b031614156104945760405162461bcd60e51b815260206004820152602160248201527f4552433732313a20617070726f76616c20746f2063757272656e74206f776e656044820152603960f91b60648201526084016103f6565b336001600160a01b03821614806104b057506104b08133610afe565b6105225760405162461bcd60e51b815260206004820152603860248201527f4552433732313a20617070726f76652063616c6c6572206973206e6f74206f7760448201527f6e6572206e6f7220617070726f76656420666f7220616c6c000000000000000060648201526084016103f6565b61052c8383610c5c565b505050565b61053b3382610cca565b6105575760405162461bcd60e51b81526004016103f69061167b565b61052c838383610da1565b6000828152600b6020908152604080832054600c90925282205482916001600160a01b0316906064906105989060ff16866116e2565b6105a29190611717565b915091509250929050565b6000333b156105ce5760405162461bcd60e51b81526004016103f69061172b565b6105d88484610b51565b600a546040516367e24df160e01b8152306004820152602481018690526001600160801b03841660448201526000916001600160a01b0316906367e24df1906064015b602060405180830381600087803b15801561063557600080fd5b505af1158015610649573d6000803e3d6000fd5b505050506040513d601f19601f8201168201806040525081019061066d9190611757565b604051909150339082907f0d9a2d7584cbc35d52a709eb74f6f43817fcca90fb0190256f13409bff4fd44690600090a3949350505050565b61052c83838360405180602001604052806000815250610892565b6000818152600260205260408120546001600160a01b0316806102e95760405162461bcd60e51b815260206004820152602960248201527f4552433732313a206f776e657220717565727920666f72206e6f6e657869737460448201526832b73a103a37b5b2b760b91b60648201526084016103f6565b60006001600160a01b0382166107a25760405162461bcd60e51b815260206004820152602a60248201527f4552433732313a2062616c616e636520717565727920666f7220746865207a65604482015269726f206164647265737360b01b60648201526084016103f6565b506001600160a01b031660009081526003602052604090205490565b6060600180546102fe90611640565b6001600160a01b0382163314156108265760405162461bcd60e51b815260206004820152601960248201527f4552433732313a20617070726f766520746f2063616c6c65720000000000000060448201526064016103f6565b3360008181526007602090815260408083206001600160a01b03871680855290835292819020805460ff191686151590811790915590519081529192917f17307eab39ab6107e8899845ad3d59bd9653f200f220920489ca2b5937696c31910160405180910390a35050565b61089c3383610cca565b6108b85760405162461bcd60e51b81526004016103f69061167b565b6108c484848484610f41565b50505050565b6000333b156108eb5760405162461bcd60e51b81526004016103f69061172b565b6108f58484610b51565b60085460405163acfee8ed60e01b815230600482015260248101869052604481018490526000916001600160a01b03169063acfee8ed9060640161061b565b6000818152600260205260409020546060906001600160a01b03166109b35760405162461bcd60e51b815260206004820152602f60248201527f4552433732314d657461646174613a2055524920717565727920666f72206e6f60448201526e3732bc34b9ba32b73a103a37b5b2b760891b60648201526084016103f6565b60408051808201909152601f81527f687474703a2f2f6c6f63616c686f73743a333030302f6d657461646174612f0060208201526109f083610f74565b604051602001610a01929190611770565b6040516020818303038152906040529050919050565b6000333b15610a385760405162461bcd60e51b81526004016103f69061172b565b610a428383610b51565b60095460405163217871c960e21b8152306004820152602481018590526000916001600160a01b0316906385e1c72490604401602060405180830381600087803b158015610a8f57600080fd5b505af1158015610aa3573d6000803e3d6000fd5b505050506040513d601f19601f82011682018060405250810190610ac79190611757565b604051909150339082907f0d9a2d7584cbc35d52a709eb74f6f43817fcca90fb0190256f13409bff4fd44690600090a39392505050565b6001600160a01b03811660009081526006602052604081205460ff1680610b4a57506001600160a01b0380841660009081526007602090815260408083209386168352929052205460ff165b9392505050565b333b15610b705760405162461bcd60e51b81526004016103f69061172b565b60328160ff161115610bc45760405162461bcd60e51b815260206004820152601a60248201527f726f79616c74792070657263656e7461676520746f6f2062696700000000000060448201526064016103f6565b610bce3283611072565b6000918252600b6020908152604080842080546001600160a01b03191632179055600c909152909120805460ff90921660ff19909216919091179055565b60006001600160e01b031982166380ac58cd60e01b1480610c3d57506001600160e01b03198216635b5e139f60e01b145b806102e957506301ffc9a760e01b6001600160e01b03198316146102e9565b600081815260046020526040902080546001600160a01b0319166001600160a01b0384169081179091558190610c91826106c0565b6001600160a01b03167f8c5be1e5ebec7d5bd14f71427d1e84f3dd0314c0f7b2291e5b200ac8c7c3b92560405160405180910390a45050565b6000818152600260205260408120546001600160a01b0316610d435760405162461bcd60e51b815260206004820152602c60248201527f4552433732313a206f70657261746f7220717565727920666f72206e6f6e657860448201526b34b9ba32b73a103a37b5b2b760a11b60648201526084016103f6565b6000610d4e836106c0565b9050806001600160a01b0316846001600160a01b03161480610d895750836001600160a01b0316610d7e84610381565b6001600160a01b0316145b80610d995750610d998185610afe565b949350505050565b826001600160a01b0316610db4826106c0565b6001600160a01b031614610e1c5760405162461bcd60e51b815260206004820152602960248201527f4552433732313a207472616e73666572206f6620746f6b656e2074686174206960448201526839903737ba1037bbb760b91b60648201526084016103f6565b6001600160a01b038216610e7e5760405162461bcd60e51b8152602060048201526024808201527f4552433732313a207472616e7366657220746f20746865207a65726f206164646044820152637265737360e01b60648201526084016103f6565b610e89600082610c5c565b6001600160a01b0383166000908152600360205260408120805460019290610eb29084906117af565b90915550506001600160a01b0382166000908152600360205260408120805460019290610ee09084906117c6565b909155505060008181526002602052604080822080546001600160a01b0319166001600160a01b0386811691821790925591518493918716917fddf252ad1be2c89b69c2b068fc378daa952ba7f163c4a11628f55a4df523b3ef91a4505050565b610f4c848484610da1565b610f58848484846111b4565b6108c45760405162461bcd60e51b81526004016103f6906117de565b606081610f985750506040805180820190915260018152600360fc1b602082015290565b8160005b8115610fc25780610fac81611830565b9150610fbb9050600a83611717565b9150610f9c565b60008167ffffffffffffffff811115610fdd57610fdd6114d3565b6040519080825280601f01601f191660200182016040528015611007576020820181803683370190505b5090505b8415610d995761101c6001836117af565b9150611029600a8661184b565b6110349060306117c6565b60f81b8183815181106110495761104961185f565b60200101906001600160f81b031916908160001a90535061106b600a86611717565b945061100b565b6001600160a01b0382166110c85760405162461bcd60e51b815260206004820181905260248201527f4552433732313a206d696e7420746f20746865207a65726f206164647265737360448201526064016103f6565b6000818152600260205260409020546001600160a01b03161561112d5760405162461bcd60e51b815260206004820152601c60248201527f4552433732313a20746f6b656e20616c7265616479206d696e7465640000000060448201526064016103f6565b6001600160a01b03821660009081526003602052604081208054600192906111569084906117c6565b909155505060008181526002602052604080822080546001600160a01b0319166001600160a01b03861690811790915590518392907fddf252ad1be2c89b69c2b068fc378daa952ba7f163c4a11628f55a4df523b3ef908290a45050565b60006001600160a01b0384163b156112b657604051630a85bd0160e11b81526001600160a01b0385169063150b7a02906111f8903390899088908890600401611875565b602060405180830381600087803b15801561121257600080fd5b505af1925050508015611242575060408051601f3d908101601f1916820190925261123f918101906118b2565b60015b61129c573d808015611270576040519150601f19603f3d011682016040523d82523d6000602084013e611275565b606091505b5080516112945760405162461bcd60e51b81526004016103f6906117de565b805181602001fd5b6001600160e01b031916630a85bd0160e11b149050610d99565b506001949350505050565b6001600160e01b0319811681146112d757600080fd5b50565b6000602082840312156112ec57600080fd5b8135610b4a816112c1565b60005b838110156113125781810151838201526020016112fa565b838111156108c45750506000910152565b6000815180845261133b8160208601602086016112f7565b601f01601f19169290920160200192915050565b602081526000610b4a6020830184611323565b60006020828403121561137457600080fd5b5035919050565b80356001600160a01b038116811461139257600080fd5b919050565b600080604083850312156113aa57600080fd5b6113b38361137b565b946020939093013593505050565b6000806000606084860312156113d657600080fd5b6113df8461137b565b92506113ed6020850161137b565b9150604084013590509250925092565b6000806040838503121561141057600080fd5b50508035926020909101359150565b803560ff8116811461139257600080fd5b60008060006060848603121561144557600080fd5b833592506114556020850161141f565b915060408401356001600160801b038116811461147157600080fd5b809150509250925092565b60006020828403121561148e57600080fd5b610b4a8261137b565b600080604083850312156114aa57600080fd5b6114b38361137b565b9150602083013580151581146114c857600080fd5b809150509250929050565b634e487b7160e01b600052604160045260246000fd5b600080600080608085870312156114ff57600080fd5b6115088561137b565b93506115166020860161137b565b925060408501359150606085013567ffffffffffffffff8082111561153a57600080fd5b818701915087601f83011261154e57600080fd5b813581811115611560576115606114d3565b604051601f8201601f19908116603f01168101908382118183101715611588576115886114d3565b816040528281528a60208487010111156115a157600080fd5b82602086016020830137600060208483010152809550505050505092959194509250565b6000806000606084860312156115da57600080fd5b833592506113ed6020850161141f565b600080604083850312156115fd57600080fd5b8235915061160d6020840161141f565b90509250929050565b6000806040838503121561162957600080fd5b6116328361137b565b915061160d6020840161137b565b600181811c9082168061165457607f821691505b6020821081141561167557634e487b7160e01b600052602260045260246000fd5b50919050565b60208082526031908201527f4552433732313a207472616e736665722063616c6c6572206973206e6f74206f6040820152701ddb995c881b9bdc88185c1c1c9bdd9959607a1b606082015260800190565b634e487b7160e01b600052601160045260246000fd5b60008160001904831182151516156116fc576116fc6116cc565b500290565b634e487b7160e01b600052601260045260246000fd5b60008261172657611726611701565b500490565b6020808252601290820152716f6e6c79206e6f6e20636f6e74726163747360701b604082015260600190565b60006020828403121561176957600080fd5b5051919050565b600083516117828184602088016112f7565b8351908301906117968183602088016112f7565b64173539b7b760d91b9101908152600501949350505050565b6000828210156117c1576117c16116cc565b500390565b600082198211156117d9576117d96116cc565b500190565b60208082526032908201527f4552433732313a207472616e7366657220746f206e6f6e20455243373231526560408201527131b2b4bb32b91034b6b83632b6b2b73a32b960711b606082015260800190565b6000600019821415611844576118446116cc565b5060010190565b60008261185a5761185a611701565b500690565b634e487b7160e01b600052603260045260246000fd5b6001600160a01b03858116825284166020820152604081018390526080606082018190526000906118a890830184611323565b9695505050505050565b6000602082840312156118c457600080fd5b8151610b4a816112c156fea2646970667358221220fa14d522ff87e5d131a6402c48c04abff0300203fe2caec4161e3d1b63179f2e64736f6c63430008090033",
  "linkReferences": {},
  "deployedLinkReferences": {}
}