{
  "_format": "hh-sol-artifact-1",
  "contractName": "ERC1155OrderMarketplace",
  "sourceName": "contracts/ERC1155Marketplace/ERC1155OrderMarketplace.sol",
  "abi": [
    {
      "inputs": [
        {
          "internalType": "address payable",
          "name": "_feeDestination",
          "type": "address"
        }
      ],
      "stateMutability": "nonpayable",
      "type": "constructor"
    },
    {
      "anonymous": false,
      "inputs": [
        {
          "indexed": true,
          "internalType": "bytes32",
          "name": "id",
          "type": "bytes32"
        },
        {
          "indexed": true,
          "internalType": "address",
          "name": "owner",
          "type": "address"
        },
        {
          "indexed": true,
          "internalType": "address",
          "name": "buyer",
          "type": "address"
        },
        {
          "indexed": false,
          "internalType": "address",
          "name": "tokenAddress",
          "type": "address"
        },
        {
          "indexed": false,
          "internalType": "uint256",
          "name": "tokenId",
          "type": "uint256"
        },
        {
          "indexed": false,
          "internalType": "uint256",
          "name": "tokenQty",
          "type": "uint256"
        },
        {
          "indexed": false,
          "internalType": "uint256",
          "name": "price",
          "type": "uint256"
        }
      ],
      "name": "OrderCompleted",
      "type": "event"
    },
    {
      "anonymous": false,
      "inputs": [
        {
          "indexed": true,
          "internalType": "bytes32",
          "name": "id",
          "type": "bytes32"
        },
        {
          "indexed": true,
          "internalType": "address",
          "name": "owner",
          "type": "address"
        },
        {
          "indexed": false,
          "internalType": "address",
          "name": "tokenAddress",
          "type": "address"
        },
        {
          "indexed": false,
          "internalType": "uint256",
          "name": "tokenId",
          "type": "uint256"
        },
        {
          "indexed": false,
          "internalType": "uint256",
          "name": "tokenQty",
          "type": "uint256"
        },
        {
          "indexed": false,
          "internalType": "uint256",
          "name": "price",
          "type": "uint256"
        }
      ],
      "name": "OrderCreated",
      "type": "event"
    },
    {
      "anonymous": false,
      "inputs": [
        {
          "indexed": true,
          "internalType": "bytes32",
          "name": "id",
          "type": "bytes32"
        },
        {
          "indexed": true,
          "internalType": "address",
          "name": "owner",
          "type": "address"
        },
        {
          "indexed": false,
          "internalType": "address",
          "name": "tokenAddress",
          "type": "address"
        },
        {
          "indexed": false,
          "internalType": "uint256",
          "name": "tokenId",
          "type": "uint256"
        },
        {
          "indexed": false,
          "internalType": "uint256",
          "name": "tokenQty",
          "type": "uint256"
        },
        {
          "indexed": false,
          "internalType": "uint256",
          "name": "price",
          "type": "uint256"
        }
      ],
      "name": "OrderRemoved",
      "type": "event"
    },
    {
      "anonymous": false,
      "inputs": [
        {
          "indexed": true,
          "internalType": "address",
          "name": "previousOwner",
          "type": "address"
        },
        {
          "indexed": true,
          "internalType": "address",
          "name": "newOwner",
          "type": "address"
        }
      ],
      "name": "OwnershipTransferred",
      "type": "event"
    },
    {
      "inputs": [
        {
          "internalType": "address",
          "name": "_contractAddress",
          "type": "address"
        }
      ],
      "name": "addApprovedContract",
      "outputs": [],
      "stateMutability": "nonpayable",
      "type": "function"
    },
    {
      "inputs": [
        {
          "internalType": "address",
          "name": "",
          "type": "address"
        }
      ],
      "name": "approvedContracts",
      "outputs": [
        {
          "internalType": "bool",
          "name": "",
          "type": "bool"
        }
      ],
      "stateMutability": "view",
      "type": "function"
    },
    {
      "inputs": [
        {
          "internalType": "bytes32",
          "name": "_id",
          "type": "bytes32"
        }
      ],
      "name": "buyOrder",
      "outputs": [],
      "stateMutability": "payable",
      "type": "function"
    },
    {
      "inputs": [
        {
          "internalType": "uint16",
          "name": "_fee",
          "type": "uint16"
        }
      ],
      "name": "changeFee",
      "outputs": [],
      "stateMutability": "nonpayable",
      "type": "function"
    },
    {
      "inputs": [
        {
          "internalType": "address payable",
          "name": "_feeDestination",
          "type": "address"
        }
      ],
      "name": "changeFeeDestination",
      "outputs": [],
      "stateMutability": "nonpayable",
      "type": "function"
    },
    {
      "inputs": [
        {
          "internalType": "address",
          "name": "_tokenAddress",
          "type": "address"
        },
        {
          "internalType": "uint256",
          "name": "_tokenId",
          "type": "uint256"
        },
        {
          "internalType": "uint256",
          "name": "_tokenQty",
          "type": "uint256"
        },
        {
          "internalType": "uint256",
          "name": "_price",
          "type": "uint256"
        }
      ],
      "name": "createOrder",
      "outputs": [
        {
          "internalType": "bytes32",
          "name": "",
          "type": "bytes32"
        }
      ],
      "stateMutability": "nonpayable",
      "type": "function"
    },
    {
      "inputs": [],
      "name": "fee",
      "outputs": [
        {
          "internalType": "uint16",
          "name": "",
          "type": "uint16"
        }
      ],
      "stateMutability": "view",
      "type": "function"
    },
    {
      "inputs": [],
      "name": "feeDestination",
      "outputs": [
        {
          "internalType": "address payable",
          "name": "",
          "type": "address"
        }
      ],
      "stateMutability": "view",
      "type": "function"
    },
    {
      "inputs": [
        {
          "internalType": "address",
          "name": "",
          "type": "address"
        },
        {
          "internalType": "address",
          "name": "",
          "type": "address"
        },
        {
          "internalType": "uint256[]",
          "name": "",
          "type": "uint256[]"
        },
        {
          "internalType": "uint256[]",
          "name": "",
          "type": "uint256[]"
        },
        {
          "internalType": "bytes",
          "name": "",
          "type": "bytes"
        }
      ],
      "name": "onERC1155BatchReceived",
      "outputs": [
        {
          "internalType": "bytes4",
          "name": "",
          "type": "bytes4"
        }
      ],
      "stateMutability": "nonpayable",
      "type": "function"
    },
    {
      "inputs": [
        {
          "internalType": "address",
          "name": "",
          "type": "address"
        },
        {
          "internalType": "address",
          "name": "",
          "type": "address"
        },
        {
          "internalType": "uint256",
          "name": "",
          "type": "uint256"
        },
        {
          "internalType": "uint256",
          "name": "",
          "type": "uint256"
        },
        {
          "internalType": "bytes",
          "name": "",
          "type": "bytes"
        }
      ],
      "name": "onERC1155Received",
      "outputs": [
        {
          "internalType": "bytes4",
          "name": "",
          "type": "bytes4"
        }
      ],
      "stateMutability": "nonpayable",
      "type": "function"
    },
    {
      "inputs": [
        {
          "internalType": "bytes32",
          "name": "",
          "type": "bytes32"
        }
      ],
      "name": "orders",
      "outputs": [
        {
          "internalType": "address",
          "name": "tokenAddress",
          "type": "address"
        },
        {
          "internalType": "uint256",
          "name": "tokenId",
          "type": "uint256"
        },
        {
          "internalType": "uint256",
          "name": "tokenQty",
          "type": "uint256"
        },
        {
          "internalType": "address",
          "name": "owner",
          "type": "address"
        },
        {
          "internalType": "uint256",
          "name": "price",
          "type": "uint256"
        }
      ],
      "stateMutability": "view",
      "type": "function"
    },
    {
      "inputs": [],
      "name": "owner",
      "outputs": [
        {
          "internalType": "address",
          "name": "",
          "type": "address"
        }
      ],
      "stateMutability": "view",
      "type": "function"
    },
    {
      "inputs": [
        {
          "internalType": "bytes32",
          "name": "_id",
          "type": "bytes32"
        }
      ],
      "name": "removeOrder",
      "outputs": [],
      "stateMutability": "nonpayable",
      "type": "function"
    },
    {
      "inputs": [],
      "name": "renounceOwnership",
      "outputs": [],
      "stateMutability": "nonpayable",
      "type": "function"
    },
    {
      "inputs": [
        {
          "internalType": "bytes4",
          "name": "interfaceId",
          "type": "bytes4"
        }
      ],
      "name": "supportsInterface",
      "outputs": [
        {
          "internalType": "bool",
          "name": "",
          "type": "bool"
        }
      ],
      "stateMutability": "view",
      "type": "function"
    },
    {
      "inputs": [
        {
          "internalType": "address",
          "name": "newOwner",
          "type": "address"
        }
      ],
      "name": "transferOwnership",
      "outputs": [],
      "stateMutability": "nonpayable",
      "type": "function"
    }
  ],
  "bytecode": "0x60806040526003805461ffff60a01b1916607d60a21b17905534801561002457600080fd5b506040516114e73803806114e7833981016040819052610043916100c1565b61004c33610071565b600380546001600160a01b0319166001600160a01b03929092169190911790556100f1565b600080546001600160a01b038381166001600160a01b0319831681178455604051919092169283917f8be0079c531659141344cd1fd0a4f28419497f9722a3daafe3b4186f6b6457e09190a35050565b6000602082840312156100d357600080fd5b81516001600160a01b03811681146100ea57600080fd5b9392505050565b6113e7806101006000396000f3fe6080604052600436106100f35760003560e01c80638eb6ac7a1161008a578063de53fcd511610059578063de53fcd514610350578063f23a6e6114610370578063f2fde38b1461039c578063fde99668146103bc57600080fd5b80638eb6ac7a146102345780639c3f1e9014610247578063bc197c81146102d6578063ddca3f431461031b57600080fd5b80633407facd116100c65780633407facd1461019f5780636f652e1a146101bf578063715018a6146101ed5780638da5cb5b1461020257600080fd5b806301ffc9a7146100f8578063135171be1461012d5780631e18cb891461014f57806326749ad71461016f575b600080fd5b34801561010457600080fd5b50610118610113366004610ee0565b6103dc565b60405190151581526020015b60405180910390f35b34801561013957600080fd5b5061014d610148366004610f1f565b610413565b005b34801561015b57600080fd5b5061014d61016a366004610f1f565b61046d565b34801561017b57600080fd5b5061011861018a366004610f1f565b60016020526000908152604090205460ff1681565b3480156101ab57600080fd5b5061014d6101ba366004610f3c565b6104b9565b3480156101cb57600080fd5b506101df6101da366004610f60565b61054e565b604051908152602001610124565b3480156101f957600080fd5b5061014d6106db565b34801561020e57600080fd5b506000546001600160a01b03165b6040516001600160a01b039091168152602001610124565b61014d610242366004610f9b565b610711565b34801561025357600080fd5b5061029f610262366004610f9b565b6002602081905260009182526040909120805460018201549282015460038301546004909301546001600160a01b03928316949391929091169085565b604080516001600160a01b03968716815260208101959095528401929092529092166060820152608081019190915260a001610124565b3480156102e257600080fd5b506103026102f13660046110eb565b63bc197c8160e01b95945050505050565b6040516001600160e01b03199091168152602001610124565b34801561032757600080fd5b5060035461033d90600160a01b900461ffff1681565b60405161ffff9091168152602001610124565b34801561035c57600080fd5b5060035461021c906001600160a01b031681565b34801561037c57600080fd5b5061030261038b366004611199565b63f23a6e6160e01b95945050505050565b3480156103a857600080fd5b5061014d6103b7366004610f1f565b610a8b565b3480156103c857600080fd5b5061014d6103d7366004610f9b565b610b26565b60006001600160e01b03198216630271189760e51b148061040d57506301ffc9a760e01b6001600160e01b03198316145b92915050565b6000546001600160a01b031633146104465760405162461bcd60e51b815260040161043d90611202565b60405180910390fd5b6001600160a01b03166000908152600160208190526040909120805460ff19169091179055565b6000546001600160a01b031633146104975760405162461bcd60e51b815260040161043d90611202565b600380546001600160a01b0319166001600160a01b0392909216919091179055565b6000546001600160a01b031633146104e35760405162461bcd60e51b815260040161043d90611202565b6102ee8161ffff16111561052c5760405162461bcd60e51b815260206004820152601060248201526f746f6f20626967206f6620612066656560801b604482015260640161043d565b6003805461ffff909216600160a01b0261ffff60a01b19909216919091179055565b604051637921219560e11b81526000906001600160a01b0386169063f242432a90610583903290309089908990600401611237565b600060405180830381600087803b15801561059d57600080fd5b505af11580156105b1573d6000803e3d6000fd5b50506040516bffffffffffffffffffffffff19606089811b82166020840152603483018990526054830187905232901b1660748201524260888201526000925060a801905060408051601f19818403018152828252805160209182012060a0840183526001600160a01b03808b1685528483018a81528585018a81523260608801818152608089018c8152600087815260029889905289902099518a549087166001600160a01b0319918216178b55945160018b01559251968901969096559451600388018054919094169216919091179091555160049094019390935590519192509082907f3b8c4041eabe54c6d50899a3a79a85ff44abb0867c400f5a7c8d8a55a8488cd6906106ca908a908a908a908a9061126f565b60405180910390a395945050505050565b6000546001600160a01b031633146107055760405162461bcd60e51b815260040161043d90611202565b61070f6000610d51565b565b6000818152600260208181526040808420815160a08101835281546001600160a01b038082168352600184018054848801528488018054968501969096526003850180549283166060860152600486018054608087019081528c8c52999098526001600160a01b03199384169095558890559387905590921690559290555134146107d05760405162461bcd60e51b815260206004820152600f60248201526e696e636f727265637420707269636560881b604482015260640161043d565b805160208201516040808401519051637921219560e11b81526001600160a01b039093169263f242432a9261080d92309233929190600401611237565b600060405180830381600087803b15801561082757600080fd5b505af115801561083b573d6000803e3d6000fd5b5050825160009250829150610860906001600160a01b031663152a902d60e11b610da1565b156108f1578251602084015160405163152a902d60e11b815260048101919091523460248201526001600160a01b0390911690632a55205a90604401604080518083038186803b1580156108b357600080fd5b505afa1580156108c7573d6000803e3d6000fd5b505050506040513d601f19601f820116820180604052508101906108eb9190611295565b90925090505b801561092f576040516001600160a01b0383169082156108fc029083906000818181858888f1935050505015801561092d573d6000803e3d6000fd5b505b600354600160a01b900461ffff16156109a1576003546001600160a01b038116906108fc906127109061096d90600160a01b900461ffff16346112d9565b61097791906112f8565b6040518115909202916000818181858888f1935050505015801561099f573d6000803e3d6000fd5b505b82606001516001600160a01b03166108fc82612710600360149054906101000a900461ffff166127106109d4919061131a565b6109e29061ffff16346112d9565b6109ec91906112f8565b6109f6919061133d565b6040518115909202916000818181858888f19350505050158015610a1e573d6000803e3d6000fd5b50336001600160a01b031683606001516001600160a01b0316857f871aa4f8fbe43a6d7f347a8749d4550f24980f75c15d5126676f4b2123a892358660000151876020015188604001518960800151604051610a7d949392919061126f565b60405180910390a450505050565b6000546001600160a01b03163314610ab55760405162461bcd60e51b815260040161043d90611202565b6001600160a01b038116610b1a5760405162461bcd60e51b815260206004820152602660248201527f4f776e61626c653a206e6577206f776e657220697320746865207a65726f206160448201526564647265737360d01b606482015260840161043d565b610b2381610d51565b50565b60008181526002602052604090206003015481906001600160a01b03163314610b845760405162461bcd60e51b815260206004820152601060248201526f37b7363c9037b93232b91037bbb732b960811b604482015260640161043d565b6000600260008481526020019081526020016000206040518060a00160405290816000820160009054906101000a90046001600160a01b03166001600160a01b03166001600160a01b0316815260200160018201548152602001600282015481526020016003820160009054906101000a90046001600160a01b03166001600160a01b03166001600160a01b03168152602001600482015481525050905060026000848152602001908152602001600020600080820160006101000a8154906001600160a01b030219169055600182016000905560028201600090556003820160006101000a8154906001600160a01b0302191690556004820160009055505080600001516001600160a01b031663f242432a3033846020015185604001516040518563ffffffff1660e01b8152600401610cc29493929190611237565b600060405180830381600087803b158015610cdc57600080fd5b505af1158015610cf0573d6000803e3d6000fd5b50505050326001600160a01b0316837fd8256cc7a883cacbd358f33c0d4219ebeca92cbedc365c6ee6cd2361108114418360000151846020015185604001518660800151604051610d44949392919061126f565b60405180910390a3505050565b600080546001600160a01b038381166001600160a01b0319831681178455604051919092169283917f8be0079c531659141344cd1fd0a4f28419497f9722a3daafe3b4186f6b6457e09190a35050565b6000610dac83610dc4565b8015610dbd5750610dbd8383610df7565b9392505050565b6000610dd7826301ffc9a760e01b610df7565b801561040d5750610df0826001600160e01b0319610df7565b1592915050565b604080516001600160e01b0319831660248083019190915282518083039091018152604490910182526020810180516001600160e01b03166301ffc9a760e01b179052905160009190829081906001600160a01b0387169061753090610e5e908690611354565b6000604051808303818686fa925050503d8060008114610e9a576040519150601f19603f3d011682016040523d82523d6000602084013e610e9f565b606091505b5091509150602081511015610eba576000935050505061040d565b818015610ed6575080806020019051810190610ed6919061138f565b9695505050505050565b600060208284031215610ef257600080fd5b81356001600160e01b031981168114610dbd57600080fd5b6001600160a01b0381168114610b2357600080fd5b600060208284031215610f3157600080fd5b8135610dbd81610f0a565b600060208284031215610f4e57600080fd5b813561ffff81168114610dbd57600080fd5b60008060008060808587031215610f7657600080fd5b8435610f8181610f0a565b966020860135965060408601359560600135945092505050565b600060208284031215610fad57600080fd5b5035919050565b634e487b7160e01b600052604160045260246000fd5b604051601f8201601f1916810167ffffffffffffffff81118282101715610ff357610ff3610fb4565b604052919050565b600082601f83011261100c57600080fd5b8135602067ffffffffffffffff82111561102857611028610fb4565b8160051b611037828201610fca565b928352848101820192828101908785111561105157600080fd5b83870192505b8483101561107057823582529183019190830190611057565b979650505050505050565b600082601f83011261108c57600080fd5b813567ffffffffffffffff8111156110a6576110a6610fb4565b6110b9601f8201601f1916602001610fca565b8181528460208386010111156110ce57600080fd5b816020850160208301376000918101602001919091529392505050565b600080600080600060a0868803121561110357600080fd5b853561110e81610f0a565b9450602086013561111e81610f0a565b9350604086013567ffffffffffffffff8082111561113b57600080fd5b61114789838a01610ffb565b9450606088013591508082111561115d57600080fd5b61116989838a01610ffb565b9350608088013591508082111561117f57600080fd5b5061118c8882890161107b565b9150509295509295909350565b600080600080600060a086880312156111b157600080fd5b85356111bc81610f0a565b945060208601356111cc81610f0a565b93506040860135925060608601359150608086013567ffffffffffffffff8111156111f657600080fd5b61118c8882890161107b565b6020808252818101527f4f776e61626c653a2063616c6c6572206973206e6f7420746865206f776e6572604082015260600190565b6001600160a01b0394851681529290931660208301526040820152606081019190915260a06080820181905260009082015260c00190565b6001600160a01b0394909416845260208401929092526040830152606082015260800190565b600080604083850312156112a857600080fd5b82516112b381610f0a565b6020939093015192949293505050565b634e487b7160e01b600052601160045260246000fd5b60008160001904831182151516156112f3576112f36112c3565b500290565b60008261131557634e487b7160e01b600052601260045260246000fd5b500490565b600061ffff83811690831681811015611335576113356112c3565b039392505050565b60008282101561134f5761134f6112c3565b500390565b6000825160005b81811015611375576020818601810151858301520161135b565b81811115611384576000828501525b509190910192915050565b6000602082840312156113a157600080fd5b81518015158114610dbd57600080fdfea264697066735822122061a6c7d121c49551761e61af0459f691fed694375bb5b932d5ad0e9f0f8efc9264736f6c63430008090033",
  "linkReferences": {},
  "deployedLinkReferences": {}
}